{
  "_format": "hh-sol-artifact-1",
  "contractName": "Inquiry",
  "sourceName": "contracts/Inquiry.sol",
  "abi": [
    {
      "inputs": [],
      "stateMutability": "nonpayable",
      "type": "constructor"
    },
    {
      "anonymous": false,
      "inputs": [
        {
          "indexed": false,
          "internalType": "address",
          "name": "sender",
          "type": "address"
        },
        {
          "indexed": false,
          "internalType": "uint256",
          "name": "amount",
          "type": "uint256"
        }
      ],
      "name": "TokensReceived",
      "type": "event"
    },
    {
      "inputs": [
        {
          "internalType": "string",
          "name": "_title",
          "type": "string"
        },
        {
          "internalType": "string",
          "name": "_description",
          "type": "string"
        },
        {
          "internalType": "string[]",
          "name": "_tags",
          "type": "string[]"
        }
      ],
      "name": "addProduct",
      "outputs": [
        {
          "internalType": "uint256",
          "name": "productId",
          "type": "uint256"
        }
      ],
      "stateMutability": "nonpayable",
      "type": "function"
    },
    {
      "inputs": [
        {
          "internalType": "uint256",
          "name": "productId",
          "type": "uint256"
        },
        {
          "internalType": "uint256",
          "name": "_sumAssured",
          "type": "uint256"
        },
        {
          "internalType": "uint256",
          "name": "_premium",
          "type": "uint256"
        },
        {
          "internalType": "string",
          "name": "_term",
          "type": "string"
        },
        {
          "internalType": "enum Inquiry.PremiumFrequency",
          "name": "_freq",
          "type": "uint8"
        }
      ],
      "name": "addQuoteToProduct",
      "outputs": [
        {
          "internalType": "uint256",
          "name": "quoteId",
          "type": "uint256"
        }
      ],
      "stateMutability": "nonpayable",
      "type": "function"
    },
    {
      "inputs": [
        {
          "internalType": "uint256",
          "name": "_productId",
          "type": "uint256"
        },
        {
          "internalType": "uint256",
          "name": "_quoteId",
          "type": "uint256"
        }
      ],
      "name": "approveTokenTransfer",
      "outputs": [
        {
          "internalType": "bool",
          "name": "status",
          "type": "bool"
        }
      ],
      "stateMutability": "nonpayable",
      "type": "function"
    },
    {
      "inputs": [],
      "name": "buyPolicy",
      "outputs": [],
      "stateMutability": "nonpayable",
      "type": "function"
    },
    {
      "inputs": [
        {
          "internalType": "address",
          "name": "_address",
          "type": "address"
        }
      ],
      "name": "checkExists",
      "outputs": [
        {
          "internalType": "bool",
          "name": "",
          "type": "bool"
        }
      ],
      "stateMutability": "view",
      "type": "function"
    },
    {
      "inputs": [],
      "name": "closePolicy",
      "outputs": [],
      "stateMutability": "nonpayable",
      "type": "function"
    },
    {
      "inputs": [],
      "name": "collectPremium",
      "outputs": [],
      "stateMutability": "nonpayable",
      "type": "function"
    },
    {
      "inputs": [
        {
          "internalType": "string",
          "name": "_basicDetails",
          "type": "string"
        },
        {
          "components": [
            {
              "internalType": "string",
              "name": "idProof",
              "type": "string"
            },
            {
              "internalType": "string",
              "name": "ageProof",
              "type": "string"
            },
            {
              "internalType": "string",
              "name": "addressProof",
              "type": "string"
            },
            {
              "internalType": "string",
              "name": "financialProof",
              "type": "string"
            },
            {
              "internalType": "string",
              "name": "mergedProof",
              "type": "string"
            }
          ],
          "internalType": "struct Inquiry.PolicyDocuments",
          "name": "_docs",
          "type": "tuple"
        },
        {
          "components": [
            {
              "internalType": "uint256",
              "name": "productId",
              "type": "uint256"
            },
            {
              "internalType": "uint256",
              "name": "quoteId",
              "type": "uint256"
            }
          ],
          "internalType": "struct Inquiry.ProductMeta",
          "name": "product",
          "type": "tuple"
        },
        {
          "internalType": "address",
          "name": "_nominee",
          "type": "address"
        },
        {
          "internalType": "string",
          "name": "_relationship",
          "type": "string"
        }
      ],
      "name": "createPolicyInquiry",
      "outputs": [],
      "stateMutability": "nonpayable",
      "type": "function"
    },
    {
      "inputs": [
        {
          "internalType": "address",
          "name": "",
          "type": "address"
        }
      ],
      "name": "exists",
      "outputs": [
        {
          "internalType": "bool",
          "name": "",
          "type": "bool"
        }
      ],
      "stateMutability": "view",
      "type": "function"
    },
    {
      "inputs": [
        {
          "internalType": "uint256",
          "name": "inquiryId",
          "type": "uint256"
        }
      ],
      "name": "getExpiry",
      "outputs": [
        {
          "components": [
            {
              "internalType": "uint256",
              "name": "start",
              "type": "uint256"
            },
            {
              "internalType": "uint256",
              "name": "expiry",
              "type": "uint256"
            }
          ],
          "internalType": "struct Inquiry.PolicyDates",
          "name": "",
          "type": "tuple"
        }
      ],
      "stateMutability": "view",
      "type": "function"
    },
    {
      "inputs": [
        {
          "internalType": "address",
          "name": "_nominee",
          "type": "address"
        }
      ],
      "name": "getPoliciesByNominee",
      "outputs": [
        {
          "components": [
            {
              "internalType": "string",
              "name": "basicDetails",
              "type": "string"
            },
            {
              "components": [
                {
                  "internalType": "string",
                  "name": "idProof",
                  "type": "string"
                },
                {
                  "internalType": "string",
                  "name": "ageProof",
                  "type": "string"
                },
                {
                  "internalType": "string",
                  "name": "addressProof",
                  "type": "string"
                },
                {
                  "internalType": "string",
                  "name": "financialProof",
                  "type": "string"
                },
                {
                  "internalType": "string",
                  "name": "mergedProof",
                  "type": "string"
                }
              ],
              "internalType": "struct Inquiry.PolicyDocuments",
              "name": "docs",
              "type": "tuple"
            },
            {
              "internalType": "uint256",
              "name": "productId",
              "type": "uint256"
            },
            {
              "internalType": "bool",
              "name": "hasApproved",
              "type": "bool"
            },
            {
              "internalType": "address",
              "name": "nominee",
              "type": "address"
            },
            {
              "internalType": "string",
              "name": "relationship",
              "type": "string"
            },
            {
              "internalType": "enum Inquiry.PolicyStatus",
              "name": "status",
              "type": "uint8"
            },
            {
              "internalType": "uint256",
              "name": "quoteId",
              "type": "uint256"
            },
            {
              "internalType": "uint256",
              "name": "premiumPaid",
              "type": "uint256"
            },
            {
              "internalType": "uint256",
              "name": "premium",
              "type": "uint256"
            },
            {
              "internalType": "uint256",
              "name": "sumAssured",
              "type": "uint256"
            }
          ],
          "internalType": "struct Inquiry.PolicyInquiry",
          "name": "policies",
          "type": "tuple"
        }
      ],
      "stateMutability": "view",
      "type": "function"
    },
    {
      "inputs": [
        {
          "internalType": "address",
          "name": "_owner",
          "type": "address"
        }
      ],
      "name": "getPolicyByOwner",
      "outputs": [
        {
          "components": [
            {
              "internalType": "string",
              "name": "basicDetails",
              "type": "string"
            },
            {
              "components": [
                {
                  "internalType": "string",
                  "name": "idProof",
                  "type": "string"
                },
                {
                  "internalType": "string",
                  "name": "ageProof",
                  "type": "string"
                },
                {
                  "internalType": "string",
                  "name": "addressProof",
                  "type": "string"
                },
                {
                  "internalType": "string",
                  "name": "financialProof",
                  "type": "string"
                },
                {
                  "internalType": "string",
                  "name": "mergedProof",
                  "type": "string"
                }
              ],
              "internalType": "struct Inquiry.PolicyDocuments",
              "name": "docs",
              "type": "tuple"
            },
            {
              "internalType": "uint256",
              "name": "productId",
              "type": "uint256"
            },
            {
              "internalType": "bool",
              "name": "hasApproved",
              "type": "bool"
            },
            {
              "internalType": "address",
              "name": "nominee",
              "type": "address"
            },
            {
              "internalType": "string",
              "name": "relationship",
              "type": "string"
            },
            {
              "internalType": "enum Inquiry.PolicyStatus",
              "name": "status",
              "type": "uint8"
            },
            {
              "internalType": "uint256",
              "name": "quoteId",
              "type": "uint256"
            },
            {
              "internalType": "uint256",
              "name": "premiumPaid",
              "type": "uint256"
            },
            {
              "internalType": "uint256",
              "name": "premium",
              "type": "uint256"
            },
            {
              "internalType": "uint256",
              "name": "sumAssured",
              "type": "uint256"
            }
          ],
          "internalType": "struct Inquiry.PolicyInquiry",
          "name": "policy",
          "type": "tuple"
        }
      ],
      "stateMutability": "view",
      "type": "function"
    },
    {
      "inputs": [
        {
          "internalType": "uint256",
          "name": "inquiryId",
          "type": "uint256"
        }
      ],
      "name": "getPolicyInquiries",
      "outputs": [
        {
          "components": [
            {
              "internalType": "string",
              "name": "basicDetails",
              "type": "string"
            },
            {
              "components": [
                {
                  "internalType": "string",
                  "name": "idProof",
                  "type": "string"
                },
                {
                  "internalType": "string",
                  "name": "ageProof",
                  "type": "string"
                },
                {
                  "internalType": "string",
                  "name": "addressProof",
                  "type": "string"
                },
                {
                  "internalType": "string",
                  "name": "financialProof",
                  "type": "string"
                },
                {
                  "internalType": "string",
                  "name": "mergedProof",
                  "type": "string"
                }
              ],
              "internalType": "struct Inquiry.PolicyDocuments",
              "name": "docs",
              "type": "tuple"
            },
            {
              "internalType": "uint256",
              "name": "productId",
              "type": "uint256"
            },
            {
              "internalType": "bool",
              "name": "hasApproved",
              "type": "bool"
            },
            {
              "internalType": "address",
              "name": "nominee",
              "type": "address"
            },
            {
              "internalType": "string",
              "name": "relationship",
              "type": "string"
            },
            {
              "internalType": "enum Inquiry.PolicyStatus",
              "name": "status",
              "type": "uint8"
            },
            {
              "internalType": "uint256",
              "name": "quoteId",
              "type": "uint256"
            },
            {
              "internalType": "uint256",
              "name": "premiumPaid",
              "type": "uint256"
            },
            {
              "internalType": "uint256",
              "name": "premium",
              "type": "uint256"
            },
            {
              "internalType": "uint256",
              "name": "sumAssured",
              "type": "uint256"
            }
          ],
          "internalType": "struct Inquiry.PolicyInquiry",
          "name": "inquiry",
          "type": "tuple"
        }
      ],
      "stateMutability": "view",
      "type": "function"
    },
    {
      "inputs": [],
      "name": "getPolicyInquiry",
      "outputs": [
        {
          "components": [
            {
              "internalType": "string",
              "name": "basicDetails",
              "type": "string"
            },
            {
              "components": [
                {
                  "internalType": "string",
                  "name": "idProof",
                  "type": "string"
                },
                {
                  "internalType": "string",
                  "name": "ageProof",
                  "type": "string"
                },
                {
                  "internalType": "string",
                  "name": "addressProof",
                  "type": "string"
                },
                {
                  "internalType": "string",
                  "name": "financialProof",
                  "type": "string"
                },
                {
                  "internalType": "string",
                  "name": "mergedProof",
                  "type": "string"
                }
              ],
              "internalType": "struct Inquiry.PolicyDocuments",
              "name": "docs",
              "type": "tuple"
            },
            {
              "internalType": "uint256",
              "name": "productId",
              "type": "uint256"
            },
            {
              "internalType": "bool",
              "name": "hasApproved",
              "type": "bool"
            },
            {
              "internalType": "address",
              "name": "nominee",
              "type": "address"
            },
            {
              "internalType": "string",
              "name": "relationship",
              "type": "string"
            },
            {
              "internalType": "enum Inquiry.PolicyStatus",
              "name": "status",
              "type": "uint8"
            },
            {
              "internalType": "uint256",
              "name": "quoteId",
              "type": "uint256"
            },
            {
              "internalType": "uint256",
              "name": "premiumPaid",
              "type": "uint256"
            },
            {
              "internalType": "uint256",
              "name": "premium",
              "type": "uint256"
            },
            {
              "internalType": "uint256",
              "name": "sumAssured",
              "type": "uint256"
            }
          ],
          "internalType": "struct Inquiry.PolicyInquiry",
          "name": "",
          "type": "tuple"
        }
      ],
      "stateMutability": "view",
      "type": "function"
    },
    {
      "inputs": [
        {
          "internalType": "uint256",
          "name": "productId",
          "type": "uint256"
        }
      ],
      "name": "getQuotes",
      "outputs": [
        {
          "components": [
            {
              "internalType": "uint256",
              "name": "id",
              "type": "uint256"
            },
            {
              "internalType": "uint256",
              "name": "sumAssured",
              "type": "uint256"
            },
            {
              "internalType": "uint256",
              "name": "premium",
              "type": "uint256"
            },
            {
              "internalType": "string",
              "name": "term",
              "type": "string"
            },
            {
              "internalType": "enum Inquiry.PremiumFrequency",
              "name": "frequency",
              "type": "uint8"
            }
          ],
          "internalType": "struct Inquiry.Quote[]",
          "name": "quotes",
          "type": "tuple[]"
        }
      ],
      "stateMutability": "view",
      "type": "function"
    },
    {
      "inputs": [
        {
          "internalType": "address",
          "name": "_owner",
          "type": "address"
        },
        {
          "internalType": "uint256",
          "name": "amount",
          "type": "uint256"
        }
      ],
      "name": "isTokenTransferApproved",
      "outputs": [
        {
          "internalType": "bool",
          "name": "",
          "type": "bool"
        }
      ],
      "stateMutability": "view",
      "type": "function"
    },
    {
      "inputs": [
        {
          "internalType": "uint256",
          "name": "",
          "type": "uint256"
        }
      ],
      "name": "listOfInquiries",
      "outputs": [
        {
          "internalType": "string",
          "name": "basicDetails",
          "type": "string"
        },
        {
          "components": [
            {
              "internalType": "string",
              "name": "idProof",
              "type": "string"
            },
            {
              "internalType": "string",
              "name": "ageProof",
              "type": "string"
            },
            {
              "internalType": "string",
              "name": "addressProof",
              "type": "string"
            },
            {
              "internalType": "string",
              "name": "financialProof",
              "type": "string"
            },
            {
              "internalType": "string",
              "name": "mergedProof",
              "type": "string"
            }
          ],
          "internalType": "struct Inquiry.PolicyDocuments",
          "name": "docs",
          "type": "tuple"
        },
        {
          "internalType": "uint256",
          "name": "productId",
          "type": "uint256"
        },
        {
          "internalType": "bool",
          "name": "hasApproved",
          "type": "bool"
        },
        {
          "internalType": "address",
          "name": "nominee",
          "type": "address"
        },
        {
          "internalType": "string",
          "name": "relationship",
          "type": "string"
        },
        {
          "internalType": "enum Inquiry.PolicyStatus",
          "name": "status",
          "type": "uint8"
        },
        {
          "internalType": "uint256",
          "name": "quoteId",
          "type": "uint256"
        },
        {
          "internalType": "uint256",
          "name": "premiumPaid",
          "type": "uint256"
        },
        {
          "internalType": "uint256",
          "name": "premium",
          "type": "uint256"
        },
        {
          "internalType": "uint256",
          "name": "sumAssured",
          "type": "uint256"
        }
      ],
      "stateMutability": "view",
      "type": "function"
    },
    {
      "inputs": [
        {
          "internalType": "address",
          "name": "",
          "type": "address"
        }
      ],
      "name": "nomineeExists",
      "outputs": [
        {
          "internalType": "bool",
          "name": "",
          "type": "bool"
        }
      ],
      "stateMutability": "view",
      "type": "function"
    },
    {
      "inputs": [],
      "name": "owner",
      "outputs": [
        {
          "internalType": "address",
          "name": "",
          "type": "address"
        }
      ],
      "stateMutability": "view",
      "type": "function"
    },
    {
      "inputs": [
        {
          "internalType": "uint256",
          "name": "",
          "type": "uint256"
        },
        {
          "internalType": "uint256",
          "name": "",
          "type": "uint256"
        }
      ],
      "name": "productQuotes",
      "outputs": [
        {
          "internalType": "uint256",
          "name": "id",
          "type": "uint256"
        },
        {
          "internalType": "uint256",
          "name": "sumAssured",
          "type": "uint256"
        },
        {
          "internalType": "uint256",
          "name": "premium",
          "type": "uint256"
        },
        {
          "internalType": "string",
          "name": "term",
          "type": "string"
        },
        {
          "internalType": "enum Inquiry.PremiumFrequency",
          "name": "frequency",
          "type": "uint8"
        }
      ],
      "stateMutability": "view",
      "type": "function"
    },
    {
      "inputs": [
        {
          "internalType": "uint256",
          "name": "",
          "type": "uint256"
        }
      ],
      "name": "products",
      "outputs": [
        {
          "internalType": "uint256",
          "name": "id",
          "type": "uint256"
        },
        {
          "internalType": "string",
          "name": "title",
          "type": "string"
        },
        {
          "internalType": "string",
          "name": "description",
          "type": "string"
        }
      ],
      "stateMutability": "view",
      "type": "function"
    },
    {
      "inputs": [
        {
          "internalType": "address",
          "name": "_token",
          "type": "address"
        }
      ],
      "name": "setToken",
      "outputs": [],
      "stateMutability": "nonpayable",
      "type": "function"
    },
    {
      "inputs": [],
      "name": "tokenAddress",
      "outputs": [
        {
          "internalType": "address",
          "name": "",
          "type": "address"
        }
      ],
      "stateMutability": "view",
      "type": "function"
    },
    {
      "inputs": [
        {
          "internalType": "string",
          "name": "_newProof",
          "type": "string"
        }
      ],
      "name": "updateAddressProof",
      "outputs": [],
      "stateMutability": "nonpayable",
      "type": "function"
    },
    {
      "inputs": [
        {
          "internalType": "string",
          "name": "_newProof",
          "type": "string"
        }
      ],
      "name": "updateAgeProof",
      "outputs": [],
      "stateMutability": "nonpayable",
      "type": "function"
    },
    {
      "inputs": [
        {
          "internalType": "string",
          "name": "_basicDetails",
          "type": "string"
        }
      ],
      "name": "updateBasicDetails",
      "outputs": [],
      "stateMutability": "nonpayable",
      "type": "function"
    },
    {
      "inputs": [
        {
          "internalType": "string",
          "name": "_newProof",
          "type": "string"
        }
      ],
      "name": "updateFinancialProof",
      "outputs": [],
      "stateMutability": "nonpayable",
      "type": "function"
    },
    {
      "inputs": [
        {
          "internalType": "string",
          "name": "_newProof",
          "type": "string"
        }
      ],
      "name": "updateIdProof",
      "outputs": [],
      "stateMutability": "nonpayable",
      "type": "function"
    },
    {
      "inputs": [
        {
          "internalType": "enum Inquiry.PolicyStatus",
          "name": "status",
          "type": "uint8"
        }
      ],
      "name": "updateInquiryStatus",
      "outputs": [],
      "stateMutability": "nonpayable",
      "type": "function"
    },
    {
      "inputs": [
        {
          "internalType": "uint8",
          "name": "_newProductId",
          "type": "uint8"
        }
      ],
      "name": "updateProductId",
      "outputs": [],
      "stateMutability": "nonpayable",
      "type": "function"
    },
    {
      "inputs": [
        {
          "internalType": "uint256",
          "name": "_newSumAssured",
          "type": "uint256"
        },
        {
          "internalType": "uint256",
          "name": "_newPremium",
          "type": "uint256"
        }
      ],
      "name": "updateSumAssuredAndPremium",
      "outputs": [],
      "stateMutability": "nonpayable",
      "type": "function"
    }
  ],
  "bytecode": "0x6080604052348015600f57600080fd5b50600580546001600160a01b0319163317905561398a806100316000396000f3fe608060405234801561001057600080fd5b50600436106101e55760003560e01c80637acc0b201161010f578063e6f9b50a116100a2578063f0c4ee6111610071578063f0c4ee611461048b578063f17eaca114610493578063f2f41161146104a6578063f6a3d24e146104ca57600080fd5b8063e6f9b50a14610426578063e8378d3f14610439578063e87316511461044c578063ec2dd19b1461045f57600080fd5b80639d76ea58116100de5780639d76ea58146103d8578063c64987f1146103eb578063d049bfef146103fe578063e24f97c91461041e57600080fd5b80637acc0b20146103475780638cb1eb54146103695780638da5cb5b1461038c57806395568d76146103b757600080fd5b8063484dfa431161018757806357d48c0f1161015657806357d48c0f146102ef578063620eab9714610302578063623dde161461032c5780637457a7ac1461033f57600080fd5b8063484dfa43146102ae5780634883577e146102b657806355566b20146102c957806356b5872b146102dc57600080fd5b806318865b12116101c357806318865b12146102455780632d18528b146102585780634395cbc31461026b57806344dc49711461028e57600080fd5b806306f6588e146101ea57806313c72608146101ff578063144fa6d714610232575b600080fd5b6101fd6101f8366004612e7a565b6104ed565b005b61021261020d366004612ea4565b610567565b604080518251815260209283015192810192909252015b60405180910390f35b6101fd610240366004612ed9565b6105f4565b6101fd610253366004612fd4565b610688565b6101fd610266366004612fd4565b610701565b61027e610279366004613009565b610773565b6040519015158152602001610229565b6102a161029c366004612ed9565b61087c565b6040516102299190613120565b6102a1610db3565b6101fd6102c436600461324a565b6112d1565b6101fd6102d7366004612fd4565b6114e2565b6101fd6102ea3660046133e6565b611557565b6102a16102fd366004612ed9565b6115ea565b610315610310366004612ea4565b61168d565b6040516102299b9a99989796959493929190613407565b6101fd61033a366004612fd4565b611b03565b6101fd611b78565b61035a610355366004612ea4565b611c9b565b6040516102299392919061349a565b61027e610377366004612ed9565b60036020526000908152604090205460ff1681565b60055461039f906001600160a01b031681565b6040516001600160a01b039091168152602001610229565b6103ca6103c53660046134cf565b611de1565b604051908152602001610229565b60075461039f906001600160a01b031681565b6101fd6103f9366004613009565b611f5b565b61041161040c366004612ea4565b611fd3565b6040516102299190613552565b6101fd612164565b6102a1610434366004612ea4565b6121e2565b61027e6104473660046135f6565b612278565b6101fd61045a366004612fd4565b612318565b61027e61046d366004612ed9565b6001600160a01b031660009081526002602052604090205460ff1690565b6101fd61238e565b6103ca6104a1366004613620565b612613565b6104b96104b4366004613009565b61273e565b60405161022995949392919061374b565b61027e6104d8366004612ed9565b60026020526000908152604090205460ff1681565b3360009081526002602052604090205460ff1661054b5760405162461bcd60e51b815260206004820152601760248201527624b738bab4b93c903237b2b9903737ba1032bc34b9ba1760491b60448201526064015b60405180910390fd5b33600090815260016020526040902060ff909116600690910155565b604080518082019091526000808252602082015260085482106105cc5760405162461bcd60e51b815260206004820152601260248201527f496e76616c696420496e717569727920496400000000000000000000000000006044820152606401610542565b5060009081526020818152604091829020825180840190935280548352600101549082015290565b6005546001600160a01b0316331461064e5760405162461bcd60e51b815260206004820152601760248201527f43616c6c6572206973206e6f7420746865206f776e65720000000000000000006044820152606401610542565b600780547fffffffffffffffffffffffff0000000000000000000000000000000000000000166001600160a01b0392909216919091179055565b3360009081526002602052604090205460ff166106e15760405162461bcd60e51b815260206004820152601760248201527624b738bab4b93c903237b2b9903737ba1032bc34b9ba1760491b6044820152606401610542565b3360009081526001602052604090206004016106fd8282613808565b5050565b3360009081526002602052604090205460ff1661075a5760405162461bcd60e51b815260206004820152601760248201527624b738bab4b93c903237b2b9903737ba1032bc34b9ba1760491b6044820152606401610542565b3360009081526001602052604090206106fd8282613808565b6007546000838152600960205260408120805491926001600160a01b031691829163095ea7b391309190879081106107ad576107ad6138c7565b60009182526020909120600260059092020101546040517fffffffff0000000000000000000000000000000000000000000000000000000060e085901b1681526001600160a01b03909216600483015260248201526044016020604051808303816000875af1158015610824573d6000803e3d6000fd5b505050506040513d601f19601f8201168201806040525081019061084891906138dd565b915081151560010361087557336000908152600160208190526040909120600701805460ff191690911790555b5092915050565b610884612d29565b6001600160a01b03821660009081526003602052604090205460ff166108ec5760405162461bcd60e51b815260206004820152601a60248201527f4e6f20696e71756972792065786973747320666f7220757365720000000000006044820152606401610542565b6001600160a01b038216600090815260046020526040908190208151610160810190925280548290829061091f9061377f565b80601f016020809104026020016040519081016040528092919081815260200182805461094b9061377f565b80156109985780601f1061096d57610100808354040283529160200191610998565b820191906000526020600020905b81548152906001019060200180831161097b57829003601f168201915b50505050508152602001600182016040518060a00160405290816000820180546109c19061377f565b80601f01602080910402602001604051908101604052809291908181526020018280546109ed9061377f565b8015610a3a5780601f10610a0f57610100808354040283529160200191610a3a565b820191906000526020600020905b815481529060010190602001808311610a1d57829003601f168201915b50505050508152602001600182018054610a539061377f565b80601f0160208091040260200160405190810160405280929190818152602001828054610a7f9061377f565b8015610acc5780601f10610aa157610100808354040283529160200191610acc565b820191906000526020600020905b815481529060010190602001808311610aaf57829003601f168201915b50505050508152602001600282018054610ae59061377f565b80601f0160208091040260200160405190810160405280929190818152602001828054610b119061377f565b8015610b5e5780601f10610b3357610100808354040283529160200191610b5e565b820191906000526020600020905b815481529060010190602001808311610b4157829003601f168201915b50505050508152602001600382018054610b779061377f565b80601f0160208091040260200160405190810160405280929190818152602001828054610ba39061377f565b8015610bf05780601f10610bc557610100808354040283529160200191610bf0565b820191906000526020600020905b815481529060010190602001808311610bd357829003601f168201915b50505050508152602001600482018054610c099061377f565b80601f0160208091040260200160405190810160405280929190818152602001828054610c359061377f565b8015610c825780601f10610c5757610100808354040283529160200191610c82565b820191906000526020600020905b815481529060010190602001808311610c6557829003601f168201915b50505091909252505050815260068201546020820152600782015460ff81161515604083015261010090046001600160a01b03166060820152600882018054608090920191610cd09061377f565b80601f0160208091040260200160405190810160405280929190818152602001828054610cfc9061377f565b8015610d495780601f10610d1e57610100808354040283529160200191610d49565b820191906000526020600020905b815481529060010190602001808311610d2c57829003601f168201915b5050509183525050600982015460209091019060ff166003811115610d7057610d706130f6565b6003811115610d8157610d816130f6565b8152600a8201546020820152600b8201546040820152600c8201546060820152600d9091015460809091015292915050565b610dbb612d29565b3360009081526002602052604090205460ff16610e145760405162461bcd60e51b815260206004820152601760248201527624b738bab4b93c903237b2b9903737ba1032bc34b9ba1760491b6044820152606401610542565b336000908152600160205260409081902081516101608101909252805482908290610e3e9061377f565b80601f0160208091040260200160405190810160405280929190818152602001828054610e6a9061377f565b8015610eb75780601f10610e8c57610100808354040283529160200191610eb7565b820191906000526020600020905b815481529060010190602001808311610e9a57829003601f168201915b50505050508152602001600182016040518060a0016040529081600082018054610ee09061377f565b80601f0160208091040260200160405190810160405280929190818152602001828054610f0c9061377f565b8015610f595780601f10610f2e57610100808354040283529160200191610f59565b820191906000526020600020905b815481529060010190602001808311610f3c57829003601f168201915b50505050508152602001600182018054610f729061377f565b80601f0160208091040260200160405190810160405280929190818152602001828054610f9e9061377f565b8015610feb5780601f10610fc057610100808354040283529160200191610feb565b820191906000526020600020905b815481529060010190602001808311610fce57829003601f168201915b505050505081526020016002820180546110049061377f565b80601f01602080910402602001604051908101604052809291908181526020018280546110309061377f565b801561107d5780601f106110525761010080835404028352916020019161107d565b820191906000526020600020905b81548152906001019060200180831161106057829003601f168201915b505050505081526020016003820180546110969061377f565b80601f01602080910402602001604051908101604052809291908181526020018280546110c29061377f565b801561110f5780601f106110e45761010080835404028352916020019161110f565b820191906000526020600020905b8154815290600101906020018083116110f257829003601f168201915b505050505081526020016004820180546111289061377f565b80601f01602080910402602001604051908101604052809291908181526020018280546111549061377f565b80156111a15780601f10611176576101008083540402835291602001916111a1565b820191906000526020600020905b81548152906001019060200180831161118457829003601f168201915b50505091909252505050815260068201546020820152600782015460ff81161515604083015261010090046001600160a01b031660608201526008820180546080909201916111ef9061377f565b80601f016020809104026020016040519081016040528092919081815260200182805461121b9061377f565b80156112685780601f1061123d57610100808354040283529160200191611268565b820191906000526020600020905b81548152906001019060200180831161124b57829003601f168201915b5050509183525050600982015460209091019060ff16600381111561128f5761128f6130f6565b60038111156112a0576112a06130f6565b8152602001600a8201548152602001600b8201548152602001600c8201548152602001600d82015481525050905090565b3360009081526002602052604090205460ff16156113315760405162461bcd60e51b815260206004820152601660248201527f496e717569727920616c726561647920657869737473000000000000000000006044820152606401610542565b6006548351106113785760405162461bcd60e51b8152602060048201526012602482015271125b9d985b1a5908141c9bd91d58dd08125960721b6044820152606401610542565b825160009081526009602090815260409091205490840151106113dd5760405162461bcd60e51b815260206004820152601060248201527f496e76616c69642051756f7465204964000000000000000000000000000000006044820152606401610542565b600060405180610160016040528087815260200186815260200185600001518152602001600015158152602001846001600160a01b0316815260200183815260200160006003811115611432576114326130f6565b815260200185602001518152602001600081526020016009600087600001518152602001908152602001600020866020015181548110611474576114746138c7565b906000526020600020906005020160020154815260200160096000876000015181526020019081526020016000208660200151815481106114b7576114b76138c7565b90600052602060002090600502016001015481525090506114d933848361281c565b50505050505050565b3360009081526002602052604090205460ff1661153b5760405162461bcd60e51b815260206004820152601760248201527624b738bab4b93c903237b2b9903737ba1032bc34b9ba1760491b6044820152606401610542565b3360009081526001602052604090206002016106fd8282613808565b3360009081526002602052604090205460ff166115b05760405162461bcd60e51b815260206004820152601760248201527624b738bab4b93c903237b2b9903737ba1032bc34b9ba1760491b6044820152606401610542565b3360009081526001602081905260409091206009018054839260ff19909116908360038111156115e2576115e26130f6565b021790555050565b6115f2612d29565b6001600160a01b03821660009081526002602052604090205460ff1661165a5760405162461bcd60e51b815260206004820152601a60248201527f4e6f20696e71756972792065786973747320666f7220757365720000000000006044820152606401610542565b6001600160a01b038216600090815260016020526040908190208151610160810190925280548290829061091f9061377f565b6008818154811061169d57600080fd5b90600052602060002090600e02016000915090508060000180546116c09061377f565b80601f01602080910402602001604051908101604052809291908181526020018280546116ec9061377f565b80156117395780601f1061170e57610100808354040283529160200191611739565b820191906000526020600020905b81548152906001019060200180831161171c57829003601f168201915b505050505090806001016040518060a001604052908160008201805461175e9061377f565b80601f016020809104026020016040519081016040528092919081815260200182805461178a9061377f565b80156117d75780601f106117ac576101008083540402835291602001916117d7565b820191906000526020600020905b8154815290600101906020018083116117ba57829003601f168201915b505050505081526020016001820180546117f09061377f565b80601f016020809104026020016040519081016040528092919081815260200182805461181c9061377f565b80156118695780601f1061183e57610100808354040283529160200191611869565b820191906000526020600020905b81548152906001019060200180831161184c57829003601f168201915b505050505081526020016002820180546118829061377f565b80601f01602080910402602001604051908101604052809291908181526020018280546118ae9061377f565b80156118fb5780601f106118d0576101008083540402835291602001916118fb565b820191906000526020600020905b8154815290600101906020018083116118de57829003601f168201915b505050505081526020016003820180546119149061377f565b80601f01602080910402602001604051908101604052809291908181526020018280546119409061377f565b801561198d5780601f106119625761010080835404028352916020019161198d565b820191906000526020600020905b81548152906001019060200180831161197057829003601f168201915b505050505081526020016004820180546119a69061377f565b80601f01602080910402602001604051908101604052809291908181526020018280546119d29061377f565b8015611a1f5780601f106119f457610100808354040283529160200191611a1f565b820191906000526020600020905b815481529060010190602001808311611a0257829003601f168201915b50505091909252505050600682015460078301546008840180549394929360ff8316936101009093046001600160a01b0316929190611a5d9061377f565b80601f0160208091040260200160405190810160405280929190818152602001828054611a899061377f565b8015611ad65780601f10611aab57610100808354040283529160200191611ad6565b820191906000526020600020905b815481529060010190602001808311611ab957829003601f168201915b5050506009840154600a850154600b860154600c870154600d90970154959660ff9093169591945092508b565b3360009081526002602052604090205460ff16611b5c5760405162461bcd60e51b815260206004820152601760248201527624b738bab4b93c903237b2b9903737ba1032bc34b9ba1760491b6044820152606401610542565b3360009081526001602052604090206003016106fd8282613808565b3360009081526002602052604090205460ff16611bd75760405162461bcd60e51b815260206004820152601c60248201527f496e717569727920646f65736e277420657869737420657869737473000000006044820152606401610542565b3360009081526001602052604081206009015460ff166003811115611bfe57611bfe6130f6565b14611c715760405162461bcd60e51b815260206004820152602860248201527f506f6c69637920496e7175697279206973206e6f7420726561647920746f206260448201527f65206163746976650000000000000000000000000000000000000000000000006064820152608401610542565b336000908152600160208190526040909120600901805460ff19169091179055611c9961238e565b565b60068181548110611cab57600080fd5b60009182526020909120600490910201805460018201805491935090611cd09061377f565b80601f0160208091040260200160405190810160405280929190818152602001828054611cfc9061377f565b8015611d495780601f10611d1e57610100808354040283529160200191611d49565b820191906000526020600020905b815481529060010190602001808311611d2c57829003601f168201915b505050505090806002018054611d5e9061377f565b80601f0160208091040260200160405190810160405280929190818152602001828054611d8a9061377f565b8015611dd75780601f10611dac57610100808354040283529160200191611dd7565b820191906000526020600020905b815481529060010190602001808311611dba57829003601f168201915b5050505050905083565b6005546000906001600160a01b03163314611e3e5760405162461bcd60e51b815260206004820152601760248201527f43616c6c6572206973206e6f7420746865206f776e65720000000000000000006044820152606401610542565b6006548610611e845760405162461bcd60e51b8152602060048201526012602482015271125b9d985b1a5908141c9bd91d58dd08125960721b6044820152606401610542565b50600085815260096020908152604080832054815160a08101835281815292830188905290820186905260608201859052919060808101846001811115611ecd57611ecd6130f6565b9052600088815260096020908152604080832080546001818101835591855293839020855160059095020193845591840151918301919091558201516002820155606082015191925082916003820190611f279082613808565b50608082015160048201805460ff191660018381811115611f4a57611f4a6130f6565b021790555050505095945050505050565b3360009081526002602052604090205460ff16611fb45760405162461bcd60e51b815260206004820152601760248201527624b738bab4b93c903237b2b9903737ba1032bc34b9ba1760491b6044820152606401610542565b336000908152600160205260409020600d810192909255600c90910155565b6060600654821061201b5760405162461bcd60e51b8152602060048201526012602482015271125b9d985b1a5908141c9bd91d58dd08125960721b6044820152606401610542565b600082815260096020908152604080832080548251818502810185019093528083529193909284015b8282101561215957838290600052602060002090600502016040518060a00160405290816000820154815260200160018201548152602001600282015481526020016003820180546120959061377f565b80601f01602080910402602001604051908101604052809291908181526020018280546120c19061377f565b801561210e5780601f106120e35761010080835404028352916020019161210e565b820191906000526020600020905b8154815290600101906020018083116120f157829003601f168201915b5050509183525050600482015460209091019060ff166001811115612135576121356130f6565b6001811115612146576121466130f6565b8152505081526020019060010190612044565b505050509050919050565b3360009081526002602052604090205460ff166121c35760405162461bcd60e51b815260206004820152601c60248201527f496e717569727920646f65736e277420657869737420657869737473000000006044820152606401610542565b336000908152600160205260409020600901805460ff19166003179055565b6121ea612d29565b600854821061223b5760405162461bcd60e51b815260206004820152601260248201527f496e76616c696420496e717569727920496400000000000000000000000000006044820152606401610542565b6008828154811061224e5761224e6138c7565b90600052602060002090600e02016040518061016001604052908160008201805461091f9061377f565b6007546040517fdd62ed3e0000000000000000000000000000000000000000000000000000000081526001600160a01b03848116600483015230602483015260009216908290829063dd62ed3e90604401602060405180830381865afa1580156122e6573d6000803e3d6000fd5b505050506040513d601f19601f8201168201806040525081019061230a91906138ff565b841115925050505b92915050565b3360009081526002602052604090205460ff166123715760405162461bcd60e51b815260206004820152601760248201527624b738bab4b93c903237b2b9903737ba1032bc34b9ba1760491b6044820152606401610542565b336000908152600160208190526040909120016106fd8282613808565b3360009081526002602052604090205460ff166123ed5760405162461bcd60e51b815260206004820152601c60248201527f496e717569727920646f65736e277420657869737420657869737473000000006044820152606401610542565b60013360009081526001602052604090206009015460ff166003811115612416576124166130f6565b146124635760405162461bcd60e51b815260206004820152601460248201527f506f6c696379206973206e6f74206163746976650000000000000000000000006044820152606401610542565b336000818152600160205260409020600c0154906124819082612278565b6124cd5760405162461bcd60e51b815260206004820152601e60248201527f546f6b656e207472616e73666572206973206e6f7420617070726f76656400006044820152606401610542565b6007546040517f23b872dd000000000000000000000000000000000000000000000000000000008152336004820152306024820152604481018390526001600160a01b039091169081906323b872dd906064016020604051808303816000875af115801561253f573d6000803e3d6000fd5b505050506040513d601f19601f8201168201806040525081019061256391906138dd565b6125af5760405162461bcd60e51b815260206004820152600f60248201527f5472616e73666572206661696c656400000000000000000000000000000000006044820152606401610542565b336000908152600160205260408120600b0180548492906125d190849061392e565b909155505060408051338152602081018490527f5a0ebf9442637ca6e817894481a6de0c29715a73efc9e02bb7ef4ed52843362d910160405180910390a15050565b6005546000906001600160a01b031633146126705760405162461bcd60e51b815260206004820152601760248201527f43616c6c6572206973206e6f7420746865206f776e65720000000000000000006044820152606401610542565b50600680546040805160808101825282815260208101878152918101869052606081018590526001830184556000939093528251600483027ff652222313e28459528d920b65115c16c04f3efc82aaedc97be59f3f377c0d3f8101918255915192939283927ff652222313e28459528d920b65115c16c04f3efc82aaedc97be59f3f377c0d4001906127029082613808565b50604082015160028201906127179082613808565b5060608201518051612733916003840191602090910190612db5565b505050509392505050565b6009602052816000526040600020818154811061275a57600080fd5b9060005260206000209060050201600091509150508060000154908060010154908060020154908060030180546127909061377f565b80601f01602080910402602001604051908101604052809291908181526020018280546127bc9061377f565b80156128095780601f106127de57610100808354040283529160200191612809565b820191906000526020600020905b8154815290600101906020018083116127ec57829003601f168201915b5050506004909301549192505060ff1685565b6001600160a01b0383166000908152600160205260408120825183919081906128459082613808565b50602082015180516001830190819061285e9082613808565b50602082015160018201906128739082613808565b50604082015160028201906128889082613808565b506060820151600382019061289d9082613808565b50608082015160048201906128b29082613808565b50505060408201516006820155606082015160078201805460808501516001600160a01b03166101000274ffffffffffffffffffffffffffffffffffffffff00199315159390931674ffffffffffffffffffffffffffffffffffffffffff199091161791909117905560a0820151600882019061292f9082613808565b5060c082015160098201805460ff19166001836003811115612953576129536130f6565b021790555060e0820151600a820155610100820151600b820155610120820151600c82015561014090910151600d909101556001600160a01b0383166000908152600460205260409020825183919081906129ae9082613808565b5060208201518051600183019081906129c79082613808565b50602082015160018201906129dc9082613808565b50604082015160028201906129f19082613808565b5060608201516003820190612a069082613808565b5060808201516004820190612a1b9082613808565b50505060408201516006820155606082015160078201805460808501516001600160a01b03166101000274ffffffffffffffffffffffffffffffffffffffff00199315159390931674ffffffffffffffffffffffffffffffffffffffffff199091161791909117905560a08201516008820190612a989082613808565b5060c082015160098201805460ff19166001836003811115612abc57612abc6130f6565b021790555060e0820151600a820155610100820151600b820155610120820151600c82015561014090910151600d909101556001600160a01b038085166000908152600260209081526040808320805460ff19908116600190811790925594881684526003909252822080549093168117909255600880549283018155905282518391600e027ff3f7a9fe364faab93b216da50a3214154f22a0a2b415b23a84c8169e8b636ee301908190612b719082613808565b506020820151805160018301908190612b8a9082613808565b5060208201516001820190612b9f9082613808565b5060408201516002820190612bb49082613808565b5060608201516003820190612bc99082613808565b5060808201516004820190612bde9082613808565b50505060408201516006820155606082015160078201805460808501516001600160a01b03166101000274ffffffffffffffffffffffffffffffffffffffff00199315159390931674ffffffffffffffffffffffffffffffffffffffffff199091161791909117905560a08201516008820190612c5b9082613808565b5060c082015160098201805460ff19166001836003811115612c7f57612c7f6130f6565b021790555060e082015181600a015561010082015181600b015561012082015181600c015561014082015181600d01555050426000806001600880549050612cc79190613941565b8152602081019190915260400160002055612ce6426301e1338061392e565b6008546000908190612cfa90600190613941565b8152602001908152602001600020600101819055506001600880549050612d219190613941565b949350505050565b60405180610160016040528060608152602001612d6e6040518060a0016040528060608152602001606081526020016060815260200160608152602001606081525090565b8152600060208201819052604082018190526060808301829052608083015260a0909101908152602001600081526020016000815260200160008152602001600081525090565b828054828255906000526020600020908101928215612dfb579160200282015b82811115612dfb5782518290612deb9082613808565b5091602001919060010190612dd5565b50612e07929150612e0b565b5090565b80821115612e07576000612e1f8282612e28565b50600101612e0b565b508054612e349061377f565b6000825580601f10612e44575050565b601f016020900490600052602060002090810190612e629190612e65565b50565b5b80821115612e075760008155600101612e66565b600060208284031215612e8c57600080fd5b813560ff81168114612e9d57600080fd5b9392505050565b600060208284031215612eb657600080fd5b5035919050565b80356001600160a01b0381168114612ed457600080fd5b919050565b600060208284031215612eeb57600080fd5b612e9d82612ebd565b634e487b7160e01b600052604160045260246000fd5b60405160a0810167ffffffffffffffff81118282101715612f2d57612f2d612ef4565b60405290565b604051601f8201601f1916810167ffffffffffffffff81118282101715612f5c57612f5c612ef4565b604052919050565b600082601f830112612f7557600080fd5b813567ffffffffffffffff811115612f8f57612f8f612ef4565b612fa2601f8201601f1916602001612f33565b818152846020838601011115612fb757600080fd5b816020850160208301376000918101602001919091529392505050565b600060208284031215612fe657600080fd5b813567ffffffffffffffff811115612ffd57600080fd5b612d2184828501612f64565b6000806040838503121561301c57600080fd5b50508035926020909101359150565b6000815180845260005b8181101561305157602081850181015186830182015201613035565b506000602082860101526020601f19601f83011685010191505092915050565b6000815160a0845261308660a085018261302b565b90506020830151848203602086015261309f828261302b565b915050604083015184820360408601526130b9828261302b565b915050606083015184820360608601526130d3828261302b565b915050608083015184820360808601526130ed828261302b565b95945050505050565b634e487b7160e01b600052602160045260246000fd5b6004811061311c5761311c6130f6565b9052565b6020815260008251610160602084015261313e61018084018261302b565b90506020840151601f1984830301604085015261315b8282613071565b91505060408401516060840152606084015161317b608085018215159052565b5060808401516001600160a01b03811660a08501525060a0840151838203601f190160c08501526131ac828261302b565b91505060c08401516131c160e085018261310c565b5060e08401516101008401526101008401516101208401526101208401516101408401526101408401516101608401528091505092915050565b60006040828403121561320d57600080fd5b6040805190810167ffffffffffffffff8111828210171561323057613230612ef4565b604052823581526020928301359281019290925250919050565b600080600080600060c0868803121561326257600080fd5b853567ffffffffffffffff81111561327957600080fd5b61328588828901612f64565b955050602086013567ffffffffffffffff8111156132a257600080fd5b860160a081890312156132b457600080fd5b6132bc612f0a565b813567ffffffffffffffff8111156132d357600080fd5b6132df8a828501612f64565b825250602082013567ffffffffffffffff8111156132fc57600080fd5b6133088a828501612f64565b602083015250604082013567ffffffffffffffff81111561332857600080fd5b6133348a828501612f64565b604083015250606082013567ffffffffffffffff81111561335457600080fd5b6133608a828501612f64565b606083015250608082013567ffffffffffffffff81111561338057600080fd5b61338c8a828501612f64565b60808301525094506133a3905087604088016131fb565b92506133b160808701612ebd565b915060a086013567ffffffffffffffff8111156133cd57600080fd5b6133d988828901612f64565b9150509295509295909350565b6000602082840312156133f857600080fd5b813560048110612e9d57600080fd5b6101608152600061341c61016083018e61302b565b828103602084015261342e818e613071565b90508b60408401528a151560608401526001600160a01b038a16608084015282810360a084015261345f818a61302b565b91505061346f60c083018861310c565b8560e08301528461010083015283610120830152826101408301529c9b505050505050505050505050565b8381526060602082015260006134b3606083018561302b565b82810360408401526134c5818561302b565b9695505050505050565b600080600080600060a086880312156134e757600080fd5b853594506020860135935060408601359250606086013567ffffffffffffffff81111561351357600080fd5b61351f88828901612f64565b92505060808601356002811061353457600080fd5b809150509295509295909350565b6002811061311c5761311c6130f6565b6000602082016020835280845180835260408501915060408160051b86010192506020860160005b828110156135ea57603f198786030184528151805186526020810151602087015260408101516040870152606081015160a060608801526135be60a088018261302b565b9050608082015191506135d46080880183613542565b955050602093840193919091019060010161357a565b50929695505050505050565b6000806040838503121561360957600080fd5b61361283612ebd565b946020939093013593505050565b60008060006060848603121561363557600080fd5b833567ffffffffffffffff81111561364c57600080fd5b61365886828701612f64565b935050602084013567ffffffffffffffff81111561367557600080fd5b61368186828701612f64565b925050604084013567ffffffffffffffff81111561369e57600080fd5b8401601f810186136136af57600080fd5b803567ffffffffffffffff8111156136c9576136c9612ef4565b8060051b6136d960208201612f33565b918252602081840181019290810190898411156136f557600080fd5b6020850192505b8383101561373c57823567ffffffffffffffff81111561371b57600080fd5b61372a8b602083890101612f64565b835250602092830192909101906136fc565b80955050505050509250925092565b85815284602082015283604082015260a06060820152600061377060a083018561302b565b90506134c56080830184613542565b600181811c9082168061379357607f821691505b6020821081036137b357634e487b7160e01b600052602260045260246000fd5b50919050565b601f82111561380357806000526020600020601f840160051c810160208510156137e05750805b601f840160051c820191505b8181101561380057600081556001016137ec565b50505b505050565b815167ffffffffffffffff81111561382257613822612ef4565b61383681613830845461377f565b846137b9565b6020601f82116001811461386a57600083156138525750848201515b600019600385901b1c1916600184901b178455613800565b600084815260208120601f198516915b8281101561389a578785015182556020948501946001909201910161387a565b50848210156138b85786840151600019600387901b60f8161c191681555b50505050600190811b01905550565b634e487b7160e01b600052603260045260246000fd5b6000602082840312156138ef57600080fd5b81518015158114612e9d57600080fd5b60006020828403121561391157600080fd5b5051919050565b634e487b7160e01b600052601160045260246000fd5b8082018082111561231257612312613918565b818103818111156123125761231261391856fea26469706673582212208530564c5f4dd4bbb9945943aff1e9f68d5b104d49630fb43c5a640e203f851864736f6c634300081b0033",
  "linkReferences": {},
  "deployedLinkReferences": {}
}