{
  "_format": "hh-sol-artifact-1",
  "contractName": "Inquiry",
  "sourceName": "contracts/Inquiry.sol",
  "abi": [
    {
      "inputs": [],
      "stateMutability": "nonpayable",
      "type": "constructor"
    },
    {
      "anonymous": false,
      "inputs": [
        {
          "indexed": false,
          "internalType": "address",
          "name": "sender",
          "type": "address"
        },
        {
          "indexed": false,
          "internalType": "uint256",
          "name": "amount",
          "type": "uint256"
        }
      ],
      "name": "TokensReceived",
      "type": "event"
    },
    {
      "inputs": [
        {
          "internalType": "string",
          "name": "_title",
          "type": "string"
        },
        {
          "internalType": "string",
          "name": "_description",
          "type": "string"
        },
        {
          "internalType": "string[]",
          "name": "_tags",
          "type": "string[]"
        }
      ],
      "name": "addProduct",
      "outputs": [
        {
          "internalType": "uint256",
          "name": "productId",
          "type": "uint256"
        }
      ],
      "stateMutability": "nonpayable",
      "type": "function"
    },
    {
      "inputs": [
        {
          "internalType": "uint256",
          "name": "productId",
          "type": "uint256"
        },
        {
          "internalType": "uint256",
          "name": "_sumAssured",
          "type": "uint256"
        },
        {
          "internalType": "uint256",
          "name": "_premium",
          "type": "uint256"
        },
        {
          "internalType": "string",
          "name": "_term",
          "type": "string"
        },
        {
          "internalType": "enum Inquiry.PremiumFrequency",
          "name": "_freq",
          "type": "uint8"
        }
      ],
      "name": "addQuoteToProduct",
      "outputs": [
        {
          "internalType": "uint256",
          "name": "quoteId",
          "type": "uint256"
        }
      ],
      "stateMutability": "nonpayable",
      "type": "function"
    },
    {
      "inputs": [
        {
          "internalType": "uint256",
          "name": "_productId",
          "type": "uint256"
        },
        {
          "internalType": "uint256",
          "name": "_quoteId",
          "type": "uint256"
        }
      ],
      "name": "approveTokenTransfer",
      "outputs": [
        {
          "internalType": "bool",
          "name": "status",
          "type": "bool"
        }
      ],
      "stateMutability": "nonpayable",
      "type": "function"
    },
    {
      "inputs": [],
      "name": "buyPolicy",
      "outputs": [],
      "stateMutability": "nonpayable",
      "type": "function"
    },
    {
      "inputs": [
        {
          "internalType": "address",
          "name": "_address",
          "type": "address"
        }
      ],
      "name": "checkExists",
      "outputs": [
        {
          "internalType": "bool",
          "name": "",
          "type": "bool"
        }
      ],
      "stateMutability": "view",
      "type": "function"
    },
    {
      "inputs": [],
      "name": "closePolicy",
      "outputs": [],
      "stateMutability": "nonpayable",
      "type": "function"
    },
    {
      "inputs": [],
      "name": "collectPremium",
      "outputs": [],
      "stateMutability": "nonpayable",
      "type": "function"
    },
    {
      "inputs": [
        {
          "internalType": "string",
          "name": "_basicDetails",
          "type": "string"
        },
        {
          "components": [
            {
              "internalType": "string",
              "name": "idProof",
              "type": "string"
            },
            {
              "internalType": "string",
              "name": "ageProof",
              "type": "string"
            },
            {
              "internalType": "string",
              "name": "addressProof",
              "type": "string"
            },
            {
              "internalType": "string",
              "name": "financialProof",
              "type": "string"
            },
            {
              "internalType": "string",
              "name": "mergedPdf",
              "type": "string"
            }
          ],
          "internalType": "struct Inquiry.PolicyDocuments",
          "name": "_docs",
          "type": "tuple"
        },
        {
          "internalType": "uint256",
          "name": "_productId",
          "type": "uint256"
        },
        {
          "internalType": "uint256",
          "name": "_quoteId",
          "type": "uint256"
        },
        {
          "internalType": "address",
          "name": "_nominee",
          "type": "address"
        },
        {
          "internalType": "string",
          "name": "_relationship",
          "type": "string"
        }
      ],
      "name": "createPolicyInquiry",
      "outputs": [
        {
          "internalType": "uint256",
          "name": "",
          "type": "uint256"
        }
      ],
      "stateMutability": "nonpayable",
      "type": "function"
    },
    {
      "inputs": [
        {
          "internalType": "address",
          "name": "",
          "type": "address"
        }
      ],
      "name": "exists",
      "outputs": [
        {
          "internalType": "bool",
          "name": "",
          "type": "bool"
        }
      ],
      "stateMutability": "view",
      "type": "function"
    },
    {
      "inputs": [
        {
          "internalType": "address",
          "name": "_nominee",
          "type": "address"
        }
      ],
      "name": "getPoliciesByNominee",
      "outputs": [
        {
          "components": [
            {
              "internalType": "string",
              "name": "basicDetails",
              "type": "string"
            },
            {
              "components": [
                {
                  "internalType": "string",
                  "name": "idProof",
                  "type": "string"
                },
                {
                  "internalType": "string",
                  "name": "ageProof",
                  "type": "string"
                },
                {
                  "internalType": "string",
                  "name": "addressProof",
                  "type": "string"
                },
                {
                  "internalType": "string",
                  "name": "financialProof",
                  "type": "string"
                },
                {
                  "internalType": "string",
                  "name": "mergedPdf",
                  "type": "string"
                }
              ],
              "internalType": "struct Inquiry.PolicyDocuments",
              "name": "docs",
              "type": "tuple"
            },
            {
              "internalType": "uint256",
              "name": "productId",
              "type": "uint256"
            },
            {
              "internalType": "bool",
              "name": "hasApproved",
              "type": "bool"
            },
            {
              "internalType": "address",
              "name": "nominee",
              "type": "address"
            },
            {
              "internalType": "string",
              "name": "relationship",
              "type": "string"
            },
            {
              "internalType": "enum Inquiry.PolicyStatus",
              "name": "status",
              "type": "uint8"
            },
            {
              "internalType": "uint256",
              "name": "quoteId",
              "type": "uint256"
            },
            {
              "internalType": "uint256",
              "name": "premiumPaid",
              "type": "uint256"
            },
            {
              "internalType": "uint256",
              "name": "premium",
              "type": "uint256"
            },
            {
              "internalType": "uint256",
              "name": "sumAssured",
              "type": "uint256"
            }
          ],
          "internalType": "struct Inquiry.PolicyInquiry",
          "name": "policies",
          "type": "tuple"
        }
      ],
      "stateMutability": "view",
      "type": "function"
    },
    {
      "inputs": [
        {
          "internalType": "address",
          "name": "_owner",
          "type": "address"
        }
      ],
      "name": "getPolicyByOwner",
      "outputs": [
        {
          "components": [
            {
              "internalType": "string",
              "name": "basicDetails",
              "type": "string"
            },
            {
              "components": [
                {
                  "internalType": "string",
                  "name": "idProof",
                  "type": "string"
                },
                {
                  "internalType": "string",
                  "name": "ageProof",
                  "type": "string"
                },
                {
                  "internalType": "string",
                  "name": "addressProof",
                  "type": "string"
                },
                {
                  "internalType": "string",
                  "name": "financialProof",
                  "type": "string"
                },
                {
                  "internalType": "string",
                  "name": "mergedPdf",
                  "type": "string"
                }
              ],
              "internalType": "struct Inquiry.PolicyDocuments",
              "name": "docs",
              "type": "tuple"
            },
            {
              "internalType": "uint256",
              "name": "productId",
              "type": "uint256"
            },
            {
              "internalType": "bool",
              "name": "hasApproved",
              "type": "bool"
            },
            {
              "internalType": "address",
              "name": "nominee",
              "type": "address"
            },
            {
              "internalType": "string",
              "name": "relationship",
              "type": "string"
            },
            {
              "internalType": "enum Inquiry.PolicyStatus",
              "name": "status",
              "type": "uint8"
            },
            {
              "internalType": "uint256",
              "name": "quoteId",
              "type": "uint256"
            },
            {
              "internalType": "uint256",
              "name": "premiumPaid",
              "type": "uint256"
            },
            {
              "internalType": "uint256",
              "name": "premium",
              "type": "uint256"
            },
            {
              "internalType": "uint256",
              "name": "sumAssured",
              "type": "uint256"
            }
          ],
          "internalType": "struct Inquiry.PolicyInquiry",
          "name": "policy",
          "type": "tuple"
        }
      ],
      "stateMutability": "view",
      "type": "function"
    },
    {
      "inputs": [
        {
          "internalType": "uint256",
          "name": "inquiryId",
          "type": "uint256"
        }
      ],
      "name": "getPolicyInquiries",
      "outputs": [
        {
          "components": [
            {
              "internalType": "string",
              "name": "basicDetails",
              "type": "string"
            },
            {
              "components": [
                {
                  "internalType": "string",
                  "name": "idProof",
                  "type": "string"
                },
                {
                  "internalType": "string",
                  "name": "ageProof",
                  "type": "string"
                },
                {
                  "internalType": "string",
                  "name": "addressProof",
                  "type": "string"
                },
                {
                  "internalType": "string",
                  "name": "financialProof",
                  "type": "string"
                },
                {
                  "internalType": "string",
                  "name": "mergedPdf",
                  "type": "string"
                }
              ],
              "internalType": "struct Inquiry.PolicyDocuments",
              "name": "docs",
              "type": "tuple"
            },
            {
              "internalType": "uint256",
              "name": "productId",
              "type": "uint256"
            },
            {
              "internalType": "bool",
              "name": "hasApproved",
              "type": "bool"
            },
            {
              "internalType": "address",
              "name": "nominee",
              "type": "address"
            },
            {
              "internalType": "string",
              "name": "relationship",
              "type": "string"
            },
            {
              "internalType": "enum Inquiry.PolicyStatus",
              "name": "status",
              "type": "uint8"
            },
            {
              "internalType": "uint256",
              "name": "quoteId",
              "type": "uint256"
            },
            {
              "internalType": "uint256",
              "name": "premiumPaid",
              "type": "uint256"
            },
            {
              "internalType": "uint256",
              "name": "premium",
              "type": "uint256"
            },
            {
              "internalType": "uint256",
              "name": "sumAssured",
              "type": "uint256"
            }
          ],
          "internalType": "struct Inquiry.PolicyInquiry",
          "name": "inquiry",
          "type": "tuple"
        }
      ],
      "stateMutability": "view",
      "type": "function"
    },
    {
      "inputs": [],
      "name": "getPolicyInquiry",
      "outputs": [
        {
          "components": [
            {
              "internalType": "string",
              "name": "basicDetails",
              "type": "string"
            },
            {
              "components": [
                {
                  "internalType": "string",
                  "name": "idProof",
                  "type": "string"
                },
                {
                  "internalType": "string",
                  "name": "ageProof",
                  "type": "string"
                },
                {
                  "internalType": "string",
                  "name": "addressProof",
                  "type": "string"
                },
                {
                  "internalType": "string",
                  "name": "financialProof",
                  "type": "string"
                },
                {
                  "internalType": "string",
                  "name": "mergedPdf",
                  "type": "string"
                }
              ],
              "internalType": "struct Inquiry.PolicyDocuments",
              "name": "docs",
              "type": "tuple"
            },
            {
              "internalType": "uint256",
              "name": "productId",
              "type": "uint256"
            },
            {
              "internalType": "bool",
              "name": "hasApproved",
              "type": "bool"
            },
            {
              "internalType": "address",
              "name": "nominee",
              "type": "address"
            },
            {
              "internalType": "string",
              "name": "relationship",
              "type": "string"
            },
            {
              "internalType": "enum Inquiry.PolicyStatus",
              "name": "status",
              "type": "uint8"
            },
            {
              "internalType": "uint256",
              "name": "quoteId",
              "type": "uint256"
            },
            {
              "internalType": "uint256",
              "name": "premiumPaid",
              "type": "uint256"
            },
            {
              "internalType": "uint256",
              "name": "premium",
              "type": "uint256"
            },
            {
              "internalType": "uint256",
              "name": "sumAssured",
              "type": "uint256"
            }
          ],
          "internalType": "struct Inquiry.PolicyInquiry",
          "name": "",
          "type": "tuple"
        }
      ],
      "stateMutability": "view",
      "type": "function"
    },
    {
      "inputs": [
        {
          "internalType": "uint256",
          "name": "productId",
          "type": "uint256"
        }
      ],
      "name": "getQuotes",
      "outputs": [
        {
          "components": [
            {
              "internalType": "uint256",
              "name": "id",
              "type": "uint256"
            },
            {
              "internalType": "uint256",
              "name": "sumAssured",
              "type": "uint256"
            },
            {
              "internalType": "uint256",
              "name": "premium",
              "type": "uint256"
            },
            {
              "internalType": "string",
              "name": "term",
              "type": "string"
            },
            {
              "internalType": "enum Inquiry.PremiumFrequency",
              "name": "frequency",
              "type": "uint8"
            }
          ],
          "internalType": "struct Inquiry.Quote[]",
          "name": "quotes",
          "type": "tuple[]"
        }
      ],
      "stateMutability": "view",
      "type": "function"
    },
    {
      "inputs": [
        {
          "internalType": "address",
          "name": "_owner",
          "type": "address"
        },
        {
          "internalType": "uint256",
          "name": "amount",
          "type": "uint256"
        }
      ],
      "name": "isTokenTransferApproved",
      "outputs": [
        {
          "internalType": "bool",
          "name": "",
          "type": "bool"
        }
      ],
      "stateMutability": "view",
      "type": "function"
    },
    {
      "inputs": [
        {
          "internalType": "uint256",
          "name": "",
          "type": "uint256"
        }
      ],
      "name": "listOfInquiries",
      "outputs": [
        {
          "internalType": "string",
          "name": "basicDetails",
          "type": "string"
        },
        {
          "components": [
            {
              "internalType": "string",
              "name": "idProof",
              "type": "string"
            },
            {
              "internalType": "string",
              "name": "ageProof",
              "type": "string"
            },
            {
              "internalType": "string",
              "name": "addressProof",
              "type": "string"
            },
            {
              "internalType": "string",
              "name": "financialProof",
              "type": "string"
            },
            {
              "internalType": "string",
              "name": "mergedPdf",
              "type": "string"
            }
          ],
          "internalType": "struct Inquiry.PolicyDocuments",
          "name": "docs",
          "type": "tuple"
        },
        {
          "internalType": "uint256",
          "name": "productId",
          "type": "uint256"
        },
        {
          "internalType": "bool",
          "name": "hasApproved",
          "type": "bool"
        },
        {
          "internalType": "address",
          "name": "nominee",
          "type": "address"
        },
        {
          "internalType": "string",
          "name": "relationship",
          "type": "string"
        },
        {
          "internalType": "enum Inquiry.PolicyStatus",
          "name": "status",
          "type": "uint8"
        },
        {
          "internalType": "uint256",
          "name": "quoteId",
          "type": "uint256"
        },
        {
          "internalType": "uint256",
          "name": "premiumPaid",
          "type": "uint256"
        },
        {
          "internalType": "uint256",
          "name": "premium",
          "type": "uint256"
        },
        {
          "internalType": "uint256",
          "name": "sumAssured",
          "type": "uint256"
        }
      ],
      "stateMutability": "view",
      "type": "function"
    },
    {
      "inputs": [
        {
          "internalType": "address",
          "name": "",
          "type": "address"
        }
      ],
      "name": "nomineeExists",
      "outputs": [
        {
          "internalType": "bool",
          "name": "",
          "type": "bool"
        }
      ],
      "stateMutability": "view",
      "type": "function"
    },
    {
      "inputs": [],
      "name": "owner",
      "outputs": [
        {
          "internalType": "address",
          "name": "",
          "type": "address"
        }
      ],
      "stateMutability": "view",
      "type": "function"
    },
    {
      "inputs": [
        {
          "internalType": "uint256",
          "name": "",
          "type": "uint256"
        },
        {
          "internalType": "uint256",
          "name": "",
          "type": "uint256"
        }
      ],
      "name": "productQuotes",
      "outputs": [
        {
          "internalType": "uint256",
          "name": "id",
          "type": "uint256"
        },
        {
          "internalType": "uint256",
          "name": "sumAssured",
          "type": "uint256"
        },
        {
          "internalType": "uint256",
          "name": "premium",
          "type": "uint256"
        },
        {
          "internalType": "string",
          "name": "term",
          "type": "string"
        },
        {
          "internalType": "enum Inquiry.PremiumFrequency",
          "name": "frequency",
          "type": "uint8"
        }
      ],
      "stateMutability": "view",
      "type": "function"
    },
    {
      "inputs": [
        {
          "internalType": "uint256",
          "name": "",
          "type": "uint256"
        }
      ],
      "name": "products",
      "outputs": [
        {
          "internalType": "uint256",
          "name": "id",
          "type": "uint256"
        },
        {
          "internalType": "string",
          "name": "title",
          "type": "string"
        },
        {
          "internalType": "string",
          "name": "description",
          "type": "string"
        }
      ],
      "stateMutability": "view",
      "type": "function"
    },
    {
      "inputs": [
        {
          "internalType": "address",
          "name": "_token",
          "type": "address"
        }
      ],
      "name": "setToken",
      "outputs": [],
      "stateMutability": "nonpayable",
      "type": "function"
    },
    {
      "inputs": [],
      "name": "tokenAddress",
      "outputs": [
        {
          "internalType": "address",
          "name": "",
          "type": "address"
        }
      ],
      "stateMutability": "view",
      "type": "function"
    },
    {
      "inputs": [
        {
          "internalType": "string",
          "name": "_newProof",
          "type": "string"
        }
      ],
      "name": "updateAddressProof",
      "outputs": [],
      "stateMutability": "nonpayable",
      "type": "function"
    },
    {
      "inputs": [
        {
          "internalType": "string",
          "name": "_newProof",
          "type": "string"
        }
      ],
      "name": "updateAgeProof",
      "outputs": [],
      "stateMutability": "nonpayable",
      "type": "function"
    },
    {
      "inputs": [
        {
          "internalType": "string",
          "name": "_basicDetails",
          "type": "string"
        }
      ],
      "name": "updateBasicDetails",
      "outputs": [],
      "stateMutability": "nonpayable",
      "type": "function"
    },
    {
      "inputs": [
        {
          "internalType": "string",
          "name": "_newProof",
          "type": "string"
        }
      ],
      "name": "updateFinancialProof",
      "outputs": [],
      "stateMutability": "nonpayable",
      "type": "function"
    },
    {
      "inputs": [
        {
          "internalType": "string",
          "name": "_newProof",
          "type": "string"
        }
      ],
      "name": "updateIdProof",
      "outputs": [],
      "stateMutability": "nonpayable",
      "type": "function"
    },
    {
      "inputs": [
        {
          "internalType": "enum Inquiry.PolicyStatus",
          "name": "status",
          "type": "uint8"
        }
      ],
      "name": "updateInquiryStatus",
      "outputs": [],
      "stateMutability": "nonpayable",
      "type": "function"
    },
    {
      "inputs": [
        {
          "internalType": "uint8",
          "name": "_newProductId",
          "type": "uint8"
        }
      ],
      "name": "updateProductId",
      "outputs": [],
      "stateMutability": "nonpayable",
      "type": "function"
    },
    {
      "inputs": [
        {
          "internalType": "uint256",
          "name": "_newSumAssured",
          "type": "uint256"
        },
        {
          "internalType": "uint256",
          "name": "_newPremium",
          "type": "uint256"
        }
      ],
      "name": "updateSumAssuredAndPremium",
      "outputs": [],
      "stateMutability": "nonpayable",
      "type": "function"
    }
  ],
  "bytecode": "0x6080604052348015600f57600080fd5b50600480546001600160a01b03191633179055613823806100316000396000f3fe608060405234801561001057600080fd5b50600436106101da5760003560e01c80638da5cb5b11610104578063e8378d3f116100a2578063f1611d6811610071578063f1611d6814610447578063f17eaca11461045a578063f2f411611461046d578063f6a3d24e1461049157600080fd5b8063e8378d3f146103ed578063e873165114610400578063ec2dd19b14610413578063f0c4ee611461043f57600080fd5b8063c64987f1116100de578063c64987f11461039f578063d049bfef146103b2578063e24f97c9146103d2578063e6f9b50a146103da57600080fd5b80638da5cb5b1461034057806395568d761461036b5780639d76ea581461038c57600080fd5b806355566b201161017c578063623dde161161014b578063623dde16146102e05780637457a7ac146102f35780637acc0b20146102fb5780638cb1eb541461031d57600080fd5b806355566b201461027d57806356b5872b1461029057806357d48c0f146102a3578063620eab97146102b657600080fd5b80632d18528b116101b85780632d18528b1461021a5780634395cbc31461022d57806344dc497114610255578063484dfa431461027557600080fd5b806306f6588e146101df578063144fa6d7146101f457806318865b1214610207575b600080fd5b6101f26101ed366004612d69565b6104b4565b005b6101f2610202366004612daf565b61052e565b6101f2610215366004612eaa565b6105c2565b6101f2610228366004612eaa565b61063b565b61024061023b366004612edf565b6106ad565b60405190151581526020015b60405180910390f35b610268610263366004612daf565b61078a565b60405161024c9190612ff6565b610268610cc1565b6101f261028b366004612eaa565b6111df565b6101f261029e3660046130d1565b611254565b6102686102b1366004612daf565b6112e4565b6102c96102c43660046130f2565b611387565b60405161024c9b9a9998979695949392919061310b565b6101f26102ee366004612eaa565b6117fd565b6101f2611872565b61030e6103093660046130f2565b611992565b60405161024c9392919061319e565b61024061032b366004612daf565b60026020526000908152604090205460ff1681565b600454610353906001600160a01b031681565b6040516001600160a01b03909116815260200161024c565b61037e6103793660046131c9565b611ad8565b60405190815260200161024c565b600654610353906001600160a01b031681565b6101f26103ad366004612edf565b611c52565b6103c56103c03660046130f2565b611cca565b60405161024c919061324c565b6101f2611e5b565b6102686103e83660046130f2565b611ed9565b6102406103fb3660046132f0565b611f6f565b6101f261040e366004612eaa565b61200f565b610240610421366004612daf565b6001600160a01b031660009081526001602052604090205460ff1690565b6101f2612084565b61037e61045536600461331a565b612309565b61037e6104683660046134b9565b612a0f565b61048061047b366004612edf565b612b3a565b60405161024c9594939291906135e4565b61024061049f366004612daf565b60016020526000908152604090205460ff1681565b3360009081526001602052604090205460ff166105125760405162461bcd60e51b815260206004820152601760248201527624b738bab4b93c903237b2b9903737ba1032bc34b9ba1760491b60448201526064015b60405180910390fd5b33600090815260208190526040902060ff909116600690910155565b6004546001600160a01b031633146105885760405162461bcd60e51b815260206004820152601760248201527f43616c6c6572206973206e6f7420746865206f776e65720000000000000000006044820152606401610509565b600680547fffffffffffffffffffffffff0000000000000000000000000000000000000000166001600160a01b0392909216919091179055565b3360009081526001602052604090205460ff1661061b5760405162461bcd60e51b815260206004820152601760248201527624b738bab4b93c903237b2b9903737ba1032bc34b9ba1760491b6044820152606401610509565b33600090815260208190526040902060040161063782826136a1565b5050565b3360009081526001602052604090205460ff166106945760405162461bcd60e51b815260206004820152601760248201527624b738bab4b93c903237b2b9903737ba1032bc34b9ba1760491b6044820152606401610509565b33600090815260208190526040902061063782826136a1565b6006546000838152600860205260408120805491926001600160a01b031691829163095ea7b391309190879081106106e7576106e7613760565b60009182526020909120600260059092020101546040517fffffffff0000000000000000000000000000000000000000000000000000000060e085901b1681526001600160a01b03909216600483015260248201526044016020604051808303816000875af115801561075e573d6000803e3d6000fd5b505050506040513d601f19601f820116820180604052508101906107829190613776565b949350505050565b610792612c18565b6001600160a01b03821660009081526002602052604090205460ff166107fa5760405162461bcd60e51b815260206004820152601a60248201527f4e6f20696e71756972792065786973747320666f7220757365720000000000006044820152606401610509565b6001600160a01b038216600090815260036020526040908190208151610160810190925280548290829061082d90613618565b80601f016020809104026020016040519081016040528092919081815260200182805461085990613618565b80156108a65780601f1061087b576101008083540402835291602001916108a6565b820191906000526020600020905b81548152906001019060200180831161088957829003601f168201915b50505050508152602001600182016040518060a00160405290816000820180546108cf90613618565b80601f01602080910402602001604051908101604052809291908181526020018280546108fb90613618565b80156109485780601f1061091d57610100808354040283529160200191610948565b820191906000526020600020905b81548152906001019060200180831161092b57829003601f168201915b5050505050815260200160018201805461096190613618565b80601f016020809104026020016040519081016040528092919081815260200182805461098d90613618565b80156109da5780601f106109af576101008083540402835291602001916109da565b820191906000526020600020905b8154815290600101906020018083116109bd57829003601f168201915b505050505081526020016002820180546109f390613618565b80601f0160208091040260200160405190810160405280929190818152602001828054610a1f90613618565b8015610a6c5780601f10610a4157610100808354040283529160200191610a6c565b820191906000526020600020905b815481529060010190602001808311610a4f57829003601f168201915b50505050508152602001600382018054610a8590613618565b80601f0160208091040260200160405190810160405280929190818152602001828054610ab190613618565b8015610afe5780601f10610ad357610100808354040283529160200191610afe565b820191906000526020600020905b815481529060010190602001808311610ae157829003601f168201915b50505050508152602001600482018054610b1790613618565b80601f0160208091040260200160405190810160405280929190818152602001828054610b4390613618565b8015610b905780601f10610b6557610100808354040283529160200191610b90565b820191906000526020600020905b815481529060010190602001808311610b7357829003601f168201915b50505091909252505050815260068201546020820152600782015460ff81161515604083015261010090046001600160a01b03166060820152600882018054608090920191610bde90613618565b80601f0160208091040260200160405190810160405280929190818152602001828054610c0a90613618565b8015610c575780601f10610c2c57610100808354040283529160200191610c57565b820191906000526020600020905b815481529060010190602001808311610c3a57829003601f168201915b5050509183525050600982015460209091019060ff166003811115610c7e57610c7e612fcc565b6003811115610c8f57610c8f612fcc565b8152600a8201546020820152600b8201546040820152600c8201546060820152600d9091015460809091015292915050565b610cc9612c18565b3360009081526001602052604090205460ff16610d225760405162461bcd60e51b815260206004820152601760248201527624b738bab4b93c903237b2b9903737ba1032bc34b9ba1760491b6044820152606401610509565b336000908152602081905260409081902081516101608101909252805482908290610d4c90613618565b80601f0160208091040260200160405190810160405280929190818152602001828054610d7890613618565b8015610dc55780601f10610d9a57610100808354040283529160200191610dc5565b820191906000526020600020905b815481529060010190602001808311610da857829003601f168201915b50505050508152602001600182016040518060a0016040529081600082018054610dee90613618565b80601f0160208091040260200160405190810160405280929190818152602001828054610e1a90613618565b8015610e675780601f10610e3c57610100808354040283529160200191610e67565b820191906000526020600020905b815481529060010190602001808311610e4a57829003601f168201915b50505050508152602001600182018054610e8090613618565b80601f0160208091040260200160405190810160405280929190818152602001828054610eac90613618565b8015610ef95780601f10610ece57610100808354040283529160200191610ef9565b820191906000526020600020905b815481529060010190602001808311610edc57829003601f168201915b50505050508152602001600282018054610f1290613618565b80601f0160208091040260200160405190810160405280929190818152602001828054610f3e90613618565b8015610f8b5780601f10610f6057610100808354040283529160200191610f8b565b820191906000526020600020905b815481529060010190602001808311610f6e57829003601f168201915b50505050508152602001600382018054610fa490613618565b80601f0160208091040260200160405190810160405280929190818152602001828054610fd090613618565b801561101d5780601f10610ff25761010080835404028352916020019161101d565b820191906000526020600020905b81548152906001019060200180831161100057829003601f168201915b5050505050815260200160048201805461103690613618565b80601f016020809104026020016040519081016040528092919081815260200182805461106290613618565b80156110af5780601f10611084576101008083540402835291602001916110af565b820191906000526020600020905b81548152906001019060200180831161109257829003601f168201915b50505091909252505050815260068201546020820152600782015460ff81161515604083015261010090046001600160a01b031660608201526008820180546080909201916110fd90613618565b80601f016020809104026020016040519081016040528092919081815260200182805461112990613618565b80156111765780601f1061114b57610100808354040283529160200191611176565b820191906000526020600020905b81548152906001019060200180831161115957829003601f168201915b5050509183525050600982015460209091019060ff16600381111561119d5761119d612fcc565b60038111156111ae576111ae612fcc565b8152602001600a8201548152602001600b8201548152602001600c8201548152602001600d82015481525050905090565b3360009081526001602052604090205460ff166112385760405162461bcd60e51b815260206004820152601760248201527624b738bab4b93c903237b2b9903737ba1032bc34b9ba1760491b6044820152606401610509565b33600090815260208190526040902060020161063782826136a1565b3360009081526001602052604090205460ff166112ad5760405162461bcd60e51b815260206004820152601760248201527624b738bab4b93c903237b2b9903737ba1032bc34b9ba1760491b6044820152606401610509565b336000908152602081905260409020600901805482919060ff191660018360038111156112dc576112dc612fcc565b021790555050565b6112ec612c18565b6001600160a01b03821660009081526001602052604090205460ff166113545760405162461bcd60e51b815260206004820152601a60248201527f4e6f20696e71756972792065786973747320666f7220757365720000000000006044820152606401610509565b6001600160a01b038216600090815260208190526040908190208151610160810190925280548290829061082d90613618565b6007818154811061139757600080fd5b90600052602060002090600e02016000915090508060000180546113ba90613618565b80601f01602080910402602001604051908101604052809291908181526020018280546113e690613618565b80156114335780601f1061140857610100808354040283529160200191611433565b820191906000526020600020905b81548152906001019060200180831161141657829003601f168201915b505050505090806001016040518060a001604052908160008201805461145890613618565b80601f016020809104026020016040519081016040528092919081815260200182805461148490613618565b80156114d15780601f106114a6576101008083540402835291602001916114d1565b820191906000526020600020905b8154815290600101906020018083116114b457829003601f168201915b505050505081526020016001820180546114ea90613618565b80601f016020809104026020016040519081016040528092919081815260200182805461151690613618565b80156115635780601f1061153857610100808354040283529160200191611563565b820191906000526020600020905b81548152906001019060200180831161154657829003601f168201915b5050505050815260200160028201805461157c90613618565b80601f01602080910402602001604051908101604052809291908181526020018280546115a890613618565b80156115f55780601f106115ca576101008083540402835291602001916115f5565b820191906000526020600020905b8154815290600101906020018083116115d857829003601f168201915b5050505050815260200160038201805461160e90613618565b80601f016020809104026020016040519081016040528092919081815260200182805461163a90613618565b80156116875780601f1061165c57610100808354040283529160200191611687565b820191906000526020600020905b81548152906001019060200180831161166a57829003601f168201915b505050505081526020016004820180546116a090613618565b80601f01602080910402602001604051908101604052809291908181526020018280546116cc90613618565b80156117195780601f106116ee57610100808354040283529160200191611719565b820191906000526020600020905b8154815290600101906020018083116116fc57829003601f168201915b50505091909252505050600682015460078301546008840180549394929360ff8316936101009093046001600160a01b031692919061175790613618565b80601f016020809104026020016040519081016040528092919081815260200182805461178390613618565b80156117d05780601f106117a5576101008083540402835291602001916117d0565b820191906000526020600020905b8154815290600101906020018083116117b357829003601f168201915b5050506009840154600a850154600b860154600c870154600d90970154959660ff9093169591945092508b565b3360009081526001602052604090205460ff166118565760405162461bcd60e51b815260206004820152601760248201527624b738bab4b93c903237b2b9903737ba1032bc34b9ba1760491b6044820152606401610509565b33600090815260208190526040902060030161063782826136a1565b3360009081526001602052604090205460ff166118d15760405162461bcd60e51b815260206004820152601c60248201527f496e717569727920646f65736e277420657869737420657869737473000000006044820152606401610509565b3360009081526020819052604081206009015460ff1660038111156118f8576118f8612fcc565b1461196b5760405162461bcd60e51b815260206004820152602860248201527f506f6c69637920496e7175697279206973206e6f7420726561647920746f206260448201527f65206163746976650000000000000000000000000000000000000000000000006064820152608401610509565b336000908152602081905260409020600901805460ff19166001179055611990612084565b565b600581815481106119a257600080fd5b600091825260209091206004909102018054600182018054919350906119c790613618565b80601f01602080910402602001604051908101604052809291908181526020018280546119f390613618565b8015611a405780601f10611a1557610100808354040283529160200191611a40565b820191906000526020600020905b815481529060010190602001808311611a2357829003601f168201915b505050505090806002018054611a5590613618565b80601f0160208091040260200160405190810160405280929190818152602001828054611a8190613618565b8015611ace5780601f10611aa357610100808354040283529160200191611ace565b820191906000526020600020905b815481529060010190602001808311611ab157829003601f168201915b5050505050905083565b6004546000906001600160a01b03163314611b355760405162461bcd60e51b815260206004820152601760248201527f43616c6c6572206973206e6f7420746865206f776e65720000000000000000006044820152606401610509565b6005548610611b7b5760405162461bcd60e51b8152602060048201526012602482015271125b9d985b1a5908141c9bd91d58dd08125960721b6044820152606401610509565b50600085815260086020908152604080832054815160a08101835281815292830188905290820186905260608201859052919060808101846001811115611bc457611bc4612fcc565b9052600088815260086020908152604080832080546001818101835591855293839020855160059095020193845591840151918301919091558201516002820155606082015191925082916003820190611c1e90826136a1565b50608082015160048201805460ff191660018381811115611c4157611c41612fcc565b021790555050505095945050505050565b3360009081526001602052604090205460ff16611cab5760405162461bcd60e51b815260206004820152601760248201527624b738bab4b93c903237b2b9903737ba1032bc34b9ba1760491b6044820152606401610509565b336000908152602081905260409020600d810192909255600c90910155565b60606005548210611d125760405162461bcd60e51b8152602060048201526012602482015271125b9d985b1a5908141c9bd91d58dd08125960721b6044820152606401610509565b600082815260086020908152604080832080548251818502810185019093528083529193909284015b82821015611e5057838290600052602060002090600502016040518060a0016040529081600082015481526020016001820154815260200160028201548152602001600382018054611d8c90613618565b80601f0160208091040260200160405190810160405280929190818152602001828054611db890613618565b8015611e055780601f10611dda57610100808354040283529160200191611e05565b820191906000526020600020905b815481529060010190602001808311611de857829003601f168201915b5050509183525050600482015460209091019060ff166001811115611e2c57611e2c612fcc565b6001811115611e3d57611e3d612fcc565b8152505081526020019060010190611d3b565b505050509050919050565b3360009081526001602052604090205460ff16611eba5760405162461bcd60e51b815260206004820152601c60248201527f496e717569727920646f65736e277420657869737420657869737473000000006044820152606401610509565b336000908152602081905260409020600901805460ff19166003179055565b611ee1612c18565b6007548210611f325760405162461bcd60e51b815260206004820152601260248201527f496e76616c696420496e717569727920496400000000000000000000000000006044820152606401610509565b60078281548110611f4557611f45613760565b90600052602060002090600e02016040518061016001604052908160008201805461082d90613618565b6006546040517fdd62ed3e0000000000000000000000000000000000000000000000000000000081526001600160a01b03848116600483015230602483015260009216908290829063dd62ed3e90604401602060405180830381865afa158015611fdd573d6000803e3d6000fd5b505050506040513d601f19601f820116820180604052508101906120019190613798565b841115925050505b92915050565b3360009081526001602052604090205460ff166120685760405162461bcd60e51b815260206004820152601760248201527624b738bab4b93c903237b2b9903737ba1032bc34b9ba1760491b6044820152606401610509565b33600090815260208190526040902060010161063782826136a1565b3360009081526001602052604090205460ff166120e35760405162461bcd60e51b815260206004820152601c60248201527f496e717569727920646f65736e277420657869737420657869737473000000006044820152606401610509565b60013360009081526020819052604090206009015460ff16600381111561210c5761210c612fcc565b146121595760405162461bcd60e51b815260206004820152601460248201527f506f6c696379206973206e6f74206163746976650000000000000000000000006044820152606401610509565b336000818152602081905260409020600c0154906121779082611f6f565b6121c35760405162461bcd60e51b815260206004820152601e60248201527f546f6b656e207472616e73666572206973206e6f7420617070726f76656400006044820152606401610509565b6006546040517f23b872dd000000000000000000000000000000000000000000000000000000008152336004820152306024820152604481018390526001600160a01b039091169081906323b872dd906064016020604051808303816000875af1158015612235573d6000803e3d6000fd5b505050506040513d601f19601f820116820180604052508101906122599190613776565b6122a55760405162461bcd60e51b815260206004820152600f60248201527f5472616e73666572206661696c656400000000000000000000000000000000006044820152606401610509565b336000908152602081905260408120600b0180548492906122c79084906137c7565b909155505060408051338152602081018490527f5a0ebf9442637ca6e817894481a6de0c29715a73efc9e02bb7ef4ed52843362d910160405180910390a15050565b3360009081526001602052604081205460ff16156123695760405162461bcd60e51b815260206004820152601660248201527f496e717569727920616c726561647920657869737473000000000000000000006044820152606401610509565b60055485106123af5760405162461bcd60e51b8152602060048201526012602482015271125b9d985b1a5908141c9bd91d58dd08125960721b6044820152606401610509565b600085815260086020526040902054841061240c5760405162461bcd60e51b815260206004820152601060248201527f496e76616c69642051756f7465204964000000000000000000000000000000006044820152606401610509565b600085815260086020526040902080546124499133918790811061243257612432613760565b906000526020600020906005020160020154611f6f565b6124a35761245785856106ad565b6124a35760405162461bcd60e51b815260206004820152601860248201527f5472616e7366657220617070726f76616c206661696c656400000000000000006044820152606401610509565b604080516101608101825288815260208101889052908101869052600160608201526001600160a01b038416608082015260a0810183905260009060c081018281526020018681526020016000815260200160086000898152602001908152602001600020878154811061251957612519613760565b906000526020600020906005020160020154815260200160086000898152602001908152602001600020878154811061255457612554613760565b6000918252602080832060016005909302019190910154909252338152908190526040902081519192508291819061258c90826136a1565b5060208201518051600183019081906125a590826136a1565b50602082015160018201906125ba90826136a1565b50604082015160028201906125cf90826136a1565b50606082015160038201906125e490826136a1565b50608082015160048201906125f990826136a1565b50505060408201516006820155606082015160078201805460808501516001600160a01b03166101000274ffffffffffffffffffffffffffffffffffffffff00199315159390931674ffffffffffffffffffffffffffffffffffffffffff199091161791909117905560a0820151600882019061267690826136a1565b5060c082015160098201805460ff1916600183600381111561269a5761269a612fcc565b021790555060e0820151600a820155610100820151600b820155610120820151600c82015561014090910151600d909101556001600160a01b0384166000908152600360205260409020815182919081906126f590826136a1565b50602082015180516001830190819061270e90826136a1565b506020820151600182019061272390826136a1565b506040820151600282019061273890826136a1565b506060820151600382019061274d90826136a1565b506080820151600482019061276290826136a1565b50505060408201516006820155606082015160078201805460808501516001600160a01b03166101000274ffffffffffffffffffffffffffffffffffffffff00199315159390931674ffffffffffffffffffffffffffffffffffffffffff199091161791909117905560a082015160088201906127df90826136a1565b5060c082015160098201805460ff1916600183600381111561280357612803612fcc565b021790555060e0820151600a820155610100820151600b820155610120820151600c82015561014090910151600d90910155336000908152600160208181526040808420805460ff1990811685179091556001600160a01b03891685526002909252832080549091168217905560078054918201815590915281518291600e027fa66cc928b5edb82af9bd49922954155ab7b0942694bea4ce44661d9a8736c688019081906128b290826136a1565b5060208201518051600183019081906128cb90826136a1565b50602082015160018201906128e090826136a1565b50604082015160028201906128f590826136a1565b506060820151600382019061290a90826136a1565b506080820151600482019061291f90826136a1565b50505060408201516006820155606082015160078201805460808501516001600160a01b03166101000274ffffffffffffffffffffffffffffffffffffffff00199315159390931674ffffffffffffffffffffffffffffffffffffffffff199091161791909117905560a0820151600882019061299c90826136a1565b5060c082015160098201805460ff191660018360038111156129c0576129c0612fcc565b021790555060e0820151600a820155610100820151600b820155610120820151600c82015561014090910151600d90910155600754612a01906001906137da565b9150505b9695505050505050565b6004546000906001600160a01b03163314612a6c5760405162461bcd60e51b815260206004820152601760248201527f43616c6c6572206973206e6f7420746865206f776e65720000000000000000006044820152606401610509565b50600580546040805160808101825282815260208101878152918101869052606081018590526001830184556000939093528251600483027f036b6384b5eca791c62761152d0c79bb0604c104a5fb6f4eb0703f3154bb3db08101918255915192939283927f036b6384b5eca791c62761152d0c79bb0604c104a5fb6f4eb0703f3154bb3db10190612afe90826136a1565b5060408201516002820190612b1390826136a1565b5060608201518051612b2f916003840191602090910190612ca4565b505050509392505050565b60086020528160005260406000208181548110612b5657600080fd5b906000526020600020906005020160009150915050806000015490806001015490806002015490806003018054612b8c90613618565b80601f0160208091040260200160405190810160405280929190818152602001828054612bb890613618565b8015612c055780601f10612bda57610100808354040283529160200191612c05565b820191906000526020600020905b815481529060010190602001808311612be857829003601f168201915b5050506004909301549192505060ff1685565b60405180610160016040528060608152602001612c5d6040518060a0016040528060608152602001606081526020016060815260200160608152602001606081525090565b8152600060208201819052604082018190526060808301829052608083015260a0909101908152602001600081526020016000815260200160008152602001600081525090565b828054828255906000526020600020908101928215612cea579160200282015b82811115612cea5782518290612cda90826136a1565b5091602001919060010190612cc4565b50612cf6929150612cfa565b5090565b80821115612cf6576000612d0e8282612d17565b50600101612cfa565b508054612d2390613618565b6000825580601f10612d33575050565b601f016020900490600052602060002090810190612d519190612d54565b50565b5b80821115612cf65760008155600101612d55565b600060208284031215612d7b57600080fd5b813560ff81168114612d8c57600080fd5b9392505050565b80356001600160a01b0381168114612daa57600080fd5b919050565b600060208284031215612dc157600080fd5b612d8c82612d93565b634e487b7160e01b600052604160045260246000fd5b60405160a0810167ffffffffffffffff81118282101715612e0357612e03612dca565b60405290565b604051601f8201601f1916810167ffffffffffffffff81118282101715612e3257612e32612dca565b604052919050565b600082601f830112612e4b57600080fd5b813567ffffffffffffffff811115612e6557612e65612dca565b612e78601f8201601f1916602001612e09565b818152846020838601011115612e8d57600080fd5b816020850160208301376000918101602001919091529392505050565b600060208284031215612ebc57600080fd5b813567ffffffffffffffff811115612ed357600080fd5b61078284828501612e3a565b60008060408385031215612ef257600080fd5b50508035926020909101359150565b6000815180845260005b81811015612f2757602081850181015186830182015201612f0b565b506000602082860101526020601f19601f83011685010191505092915050565b6000815160a08452612f5c60a0850182612f01565b905060208301518482036020860152612f758282612f01565b91505060408301518482036040860152612f8f8282612f01565b91505060608301518482036060860152612fa98282612f01565b91505060808301518482036080860152612fc38282612f01565b95945050505050565b634e487b7160e01b600052602160045260246000fd5b60048110612ff257612ff2612fcc565b9052565b60208152600082516101606020840152613014610180840182612f01565b90506020840151601f198483030160408501526130318282612f47565b915050604084015160608401526060840151613051608085018215159052565b5060808401516001600160a01b03811660a08501525060a0840151838203601f190160c08501526130828282612f01565b91505060c084015161309760e0850182612fe2565b5060e08401516101008401526101008401516101208401526101208401516101408401526101408401516101608401528091505092915050565b6000602082840312156130e357600080fd5b813560048110612d8c57600080fd5b60006020828403121561310457600080fd5b5035919050565b6101608152600061312061016083018e612f01565b8281036020840152613132818e612f47565b90508b60408401528a151560608401526001600160a01b038a16608084015282810360a0840152613163818a612f01565b91505061317360c0830188612fe2565b8560e08301528461010083015283610120830152826101408301529c9b505050505050505050505050565b8381526060602082015260006131b76060830185612f01565b8281036040840152612a058185612f01565b600080600080600060a086880312156131e157600080fd5b853594506020860135935060408601359250606086013567ffffffffffffffff81111561320d57600080fd5b61321988828901612e3a565b92505060808601356002811061322e57600080fd5b809150509295509295909350565b60028110612ff257612ff2612fcc565b6000602082016020835280845180835260408501915060408160051b86010192506020860160005b828110156132e457603f198786030184528151805186526020810151602087015260408101516040870152606081015160a060608801526132b860a0880182612f01565b9050608082015191506132ce608088018361323c565b9550506020938401939190910190600101613274565b50929695505050505050565b6000806040838503121561330357600080fd5b61330c83612d93565b946020939093013593505050565b60008060008060008060c0878903121561333357600080fd5b863567ffffffffffffffff81111561334a57600080fd5b61335689828a01612e3a565b965050602087013567ffffffffffffffff81111561337357600080fd5b870160a0818a03121561338557600080fd5b61338d612de0565b813567ffffffffffffffff8111156133a457600080fd5b6133b08b828501612e3a565b825250602082013567ffffffffffffffff8111156133cd57600080fd5b6133d98b828501612e3a565b602083015250604082013567ffffffffffffffff8111156133f957600080fd5b6134058b828501612e3a565b604083015250606082013567ffffffffffffffff81111561342557600080fd5b6134318b828501612e3a565b606083015250608082013567ffffffffffffffff81111561345157600080fd5b61345d8b828501612e3a565b60808381019190915291975050604089013595506060890135945061348491508801612d93565b915060a087013567ffffffffffffffff8111156134a057600080fd5b6134ac89828a01612e3a565b9150509295509295509295565b6000806000606084860312156134ce57600080fd5b833567ffffffffffffffff8111156134e557600080fd5b6134f186828701612e3a565b935050602084013567ffffffffffffffff81111561350e57600080fd5b61351a86828701612e3a565b925050604084013567ffffffffffffffff81111561353757600080fd5b8401601f8101861361354857600080fd5b803567ffffffffffffffff81111561356257613562612dca565b8060051b61357260208201612e09565b9182526020818401810192908101908984111561358e57600080fd5b6020850192505b838310156135d557823567ffffffffffffffff8111156135b457600080fd5b6135c38b602083890101612e3a565b83525060209283019290910190613595565b80955050505050509250925092565b85815284602082015283604082015260a06060820152600061360960a0830185612f01565b9050612a05608083018461323c565b600181811c9082168061362c57607f821691505b60208210810361364c57634e487b7160e01b600052602260045260246000fd5b50919050565b601f82111561369c57806000526020600020601f840160051c810160208510156136795750805b601f840160051c820191505b818110156136995760008155600101613685565b50505b505050565b815167ffffffffffffffff8111156136bb576136bb612dca565b6136cf816136c98454613618565b84613652565b6020601f82116001811461370357600083156136eb5750848201515b600019600385901b1c1916600184901b178455613699565b600084815260208120601f198516915b828110156137335787850151825560209485019460019092019101613713565b50848210156137515786840151600019600387901b60f8161c191681555b50505050600190811b01905550565b634e487b7160e01b600052603260045260246000fd5b60006020828403121561378857600080fd5b81518015158114612d8c57600080fd5b6000602082840312156137aa57600080fd5b5051919050565b634e487b7160e01b600052601160045260246000fd5b80820180821115612009576120096137b1565b81810381811115612009576120096137b156fea26469706673582212202f34868d9d5550aa7c4568c52a93171a60a23314c6641837a92392d6ca1518ae64736f6c634300081b0033",
  "linkReferences": {},
  "deployedLinkReferences": {}
}