{
  "_format": "hh-sol-artifact-1",
  "contractName": "NebulaUSD",
  "sourceName": "contracts/NebulaUSD.sol",
  "abi": [
    {
      "inputs": [],
      "stateMutability": "nonpayable",
      "type": "constructor"
    },
    {
      "anonymous": false,
      "inputs": [
        {
          "indexed": true,
          "internalType": "address",
          "name": "owner",
          "type": "address"
        },
        {
          "indexed": true,
          "internalType": "address",
          "name": "spender",
          "type": "address"
        },
        {
          "indexed": false,
          "internalType": "uint256",
          "name": "value",
          "type": "uint256"
        }
      ],
      "name": "Approval",
      "type": "event"
    },
    {
      "anonymous": false,
      "inputs": [
        {
          "indexed": true,
          "internalType": "address",
          "name": "from",
          "type": "address"
        },
        {
          "indexed": true,
          "internalType": "address",
          "name": "to",
          "type": "address"
        },
        {
          "indexed": false,
          "internalType": "uint256",
          "name": "value",
          "type": "uint256"
        }
      ],
      "name": "Transfer",
      "type": "event"
    },
    {
      "inputs": [],
      "name": "DECIMALS",
      "outputs": [
        {
          "internalType": "uint8",
          "name": "",
          "type": "uint8"
        }
      ],
      "stateMutability": "view",
      "type": "function"
    },
    {
      "inputs": [],
      "name": "INITIAL_SUPPLY",
      "outputs": [
        {
          "internalType": "uint256",
          "name": "",
          "type": "uint256"
        }
      ],
      "stateMutability": "view",
      "type": "function"
    },
    {
      "inputs": [],
      "name": "NAME",
      "outputs": [
        {
          "internalType": "string",
          "name": "",
          "type": "string"
        }
      ],
      "stateMutability": "view",
      "type": "function"
    },
    {
      "inputs": [],
      "name": "SYMBOL",
      "outputs": [
        {
          "internalType": "string",
          "name": "",
          "type": "string"
        }
      ],
      "stateMutability": "view",
      "type": "function"
    },
    {
      "inputs": [
        {
          "internalType": "address",
          "name": "owner",
          "type": "address"
        },
        {
          "internalType": "address",
          "name": "spender",
          "type": "address"
        }
      ],
      "name": "allowance",
      "outputs": [
        {
          "internalType": "uint256",
          "name": "",
          "type": "uint256"
        }
      ],
      "stateMutability": "view",
      "type": "function"
    },
    {
      "inputs": [
        {
          "internalType": "address",
          "name": "spender",
          "type": "address"
        },
        {
          "internalType": "uint256",
          "name": "amount",
          "type": "uint256"
        }
      ],
      "name": "approve",
      "outputs": [
        {
          "internalType": "bool",
          "name": "",
          "type": "bool"
        }
      ],
      "stateMutability": "nonpayable",
      "type": "function"
    },
    {
      "inputs": [
        {
          "internalType": "address",
          "name": "account",
          "type": "address"
        }
      ],
      "name": "balanceOf",
      "outputs": [
        {
          "internalType": "uint256",
          "name": "",
          "type": "uint256"
        }
      ],
      "stateMutability": "view",
      "type": "function"
    },
    {
      "inputs": [],
      "name": "decimals",
      "outputs": [
        {
          "internalType": "uint8",
          "name": "",
          "type": "uint8"
        }
      ],
      "stateMutability": "pure",
      "type": "function"
    },
    {
      "inputs": [
        {
          "internalType": "address",
          "name": "spender",
          "type": "address"
        },
        {
          "internalType": "uint256",
          "name": "subtractedValue",
          "type": "uint256"
        }
      ],
      "name": "decreaseAllowance",
      "outputs": [
        {
          "internalType": "bool",
          "name": "",
          "type": "bool"
        }
      ],
      "stateMutability": "nonpayable",
      "type": "function"
    },
    {
      "inputs": [
        {
          "internalType": "address",
          "name": "spender",
          "type": "address"
        },
        {
          "internalType": "uint256",
          "name": "addedValue",
          "type": "uint256"
        }
      ],
      "name": "increaseAllowance",
      "outputs": [
        {
          "internalType": "bool",
          "name": "",
          "type": "bool"
        }
      ],
      "stateMutability": "nonpayable",
      "type": "function"
    },
    {
      "inputs": [],
      "name": "name",
      "outputs": [
        {
          "internalType": "string",
          "name": "",
          "type": "string"
        }
      ],
      "stateMutability": "view",
      "type": "function"
    },
    {
      "inputs": [],
      "name": "symbol",
      "outputs": [
        {
          "internalType": "string",
          "name": "",
          "type": "string"
        }
      ],
      "stateMutability": "view",
      "type": "function"
    },
    {
      "inputs": [],
      "name": "totalSupply",
      "outputs": [
        {
          "internalType": "uint256",
          "name": "",
          "type": "uint256"
        }
      ],
      "stateMutability": "view",
      "type": "function"
    },
    {
      "inputs": [
        {
          "internalType": "address",
          "name": "recipient",
          "type": "address"
        },
        {
          "internalType": "uint256",
          "name": "amount",
          "type": "uint256"
        }
      ],
      "name": "transfer",
      "outputs": [
        {
          "internalType": "bool",
          "name": "",
          "type": "bool"
        }
      ],
      "stateMutability": "nonpayable",
      "type": "function"
    },
    {
      "inputs": [
        {
          "internalType": "address",
          "name": "sender",
          "type": "address"
        },
        {
          "internalType": "address",
          "name": "recipient",
          "type": "address"
        },
        {
          "internalType": "uint256",
          "name": "amount",
          "type": "uint256"
        }
      ],
      "name": "transferFrom",
      "outputs": [
        {
          "internalType": "bool",
          "name": "",
          "type": "bool"
        }
      ],
      "stateMutability": "nonpayable",
      "type": "function"
    }
  ],
  "bytecode": "0x608060405234801561001057600080fd5b50604051806040016040528060098152602001681399589d5b185554d160ba1b815250604051806040016040528060038152602001622722a160e91b815250816003908161005e919061022e565b50600461006b828261022e565b50505061009f61007f6100a460201b60201c565b61008b6006600a6103eb565b61009a9064e8d4a51000610401565b6100a8565b61042b565b3390565b6001600160a01b0382166101025760405162461bcd60e51b815260206004820152601f60248201527f45524332303a206d696e7420746f20746865207a65726f206164647265737300604482015260640160405180910390fd5b80600260008282546101149190610418565b90915550506001600160a01b03821660009081526020819052604081208054839290610141908490610418565b90915550506040518181526001600160a01b038316906000907fddf252ad1be2c89b69c2b068fc378daa952ba7f163c4a11628f55a4df523b3ef9060200160405180910390a35050565b505050565b634e487b7160e01b600052604160045260246000fd5b600181811c908216806101ba57607f821691505b6020821081036101da57634e487b7160e01b600052602260045260246000fd5b50919050565b601f82111561018b57806000526020600020601f840160051c810160208510156102075750805b601f840160051c820191505b818110156102275760008155600101610213565b5050505050565b81516001600160401b0381111561024757610247610190565b61025b8161025584546101a6565b846101e0565b6020601f82116001811461028f57600083156102775750848201515b600019600385901b1c1916600184901b178455610227565b600084815260208120601f198516915b828110156102bf578785015182556020948501946001909201910161029f565b50848210156102dd5786840151600019600387901b60f8161c191681555b50505050600190811b01905550565b634e487b7160e01b600052601160045260246000fd5b6001815b600184111561033d57808504811115610321576103216102ec565b600184161561032f57908102905b60019390931c928002610306565b935093915050565b600082610354575060016103e5565b81610361575060006103e5565b816001811461037757600281146103815761039d565b60019150506103e5565b60ff841115610392576103926102ec565b50506001821b6103e5565b5060208310610133831016604e8410600b84101617156103c0575081810a6103e5565b6103cd6000198484610302565b80600019048211156103e1576103e16102ec565b0290505b92915050565b60006103fa60ff841683610345565b9392505050565b80820281158282048414176103e5576103e56102ec565b808201808211156103e5576103e56102ec565b610b748061043a6000396000f3fe608060405234801561001057600080fd5b50600436106100f55760003560e01c80633950935111610097578063a457c2d711610066578063a457c2d714610209578063a9059cbb1461021c578063dd62ed3e1461022f578063f76f8d781461026857600080fd5b8063395093511461018957806370a082311461019c57806395d89b41146101c5578063a3f4df7e146101cd57600080fd5b806323b872dd116100d357806323b872dd1461014d5780632e0f2625146101605780632ff2e9dc1461017a578063313ce5671461018257600080fd5b806306fdde03146100fa578063095ea7b31461011857806318160ddd1461013b575b600080fd5b6101026102a4565b60405161010f91906108a8565b60405180910390f35b61012b610126366004610912565b610336565b604051901515815260200161010f565b6002545b60405190815260200161010f565b61012b61015b36600461093c565b61034d565b610168600681565b60405160ff909116815260200161010f565b61013f610411565b6006610168565b61012b610197366004610912565b61042f565b61013f6101aa366004610979565b6001600160a01b031660009081526020819052604090205490565b61010261046b565b6101026040518060400160405280600981526020017f4e6562756c61555344000000000000000000000000000000000000000000000081525081565b61012b610217366004610912565b61047a565b61012b61022a366004610912565b61052b565b61013f61023d36600461099b565b6001600160a01b03918216600090815260016020908152604080832093909416825291909152205490565b6101026040518060400160405280600381526020017f4e4542000000000000000000000000000000000000000000000000000000000081525081565b6060600380546102b3906109ce565b80601f01602080910402602001604051908101604052809291908181526020018280546102df906109ce565b801561032c5780601f106103015761010080835404028352916020019161032c565b820191906000526020600020905b81548152906001019060200180831161030f57829003601f168201915b5050505050905090565b6000610343338484610538565b5060015b92915050565b600061035a848484610690565b6001600160a01b0384166000908152600160209081526040808320338452909152902054828110156103f95760405162461bcd60e51b815260206004820152602860248201527f45524332303a207472616e7366657220616d6f756e742065786365656473206160448201527f6c6c6f77616e636500000000000000000000000000000000000000000000000060648201526084015b60405180910390fd5b6104068533858403610538565b506001949350505050565b61041d6006600a610b05565b61042c9064e8d4a51000610b14565b81565b3360008181526001602090815260408083206001600160a01b03871684529091528120549091610343918590610466908690610b2b565b610538565b6060600480546102b3906109ce565b3360009081526001602090815260408083206001600160a01b0386168452909152812054828110156105145760405162461bcd60e51b815260206004820152602560248201527f45524332303a2064656372656173656420616c6c6f77616e63652062656c6f7760448201527f207a65726f00000000000000000000000000000000000000000000000000000060648201526084016103f0565b6105213385858403610538565b5060019392505050565b6000610343338484610690565b6001600160a01b0383166105b35760405162461bcd60e51b8152602060048201526024808201527f45524332303a20617070726f76652066726f6d20746865207a65726f2061646460448201527f726573730000000000000000000000000000000000000000000000000000000060648201526084016103f0565b6001600160a01b03821661062f5760405162461bcd60e51b815260206004820152602260248201527f45524332303a20617070726f766520746f20746865207a65726f20616464726560448201527f737300000000000000000000000000000000000000000000000000000000000060648201526084016103f0565b6001600160a01b0383811660008181526001602090815260408083209487168084529482529182902085905590518481527f8c5be1e5ebec7d5bd14f71427d1e84f3dd0314c0f7b2291e5b200ac8c7c3b925910160405180910390a3505050565b6001600160a01b03831661070c5760405162461bcd60e51b815260206004820152602560248201527f45524332303a207472616e736665722066726f6d20746865207a65726f20616460448201527f647265737300000000000000000000000000000000000000000000000000000060648201526084016103f0565b6001600160a01b0382166107885760405162461bcd60e51b815260206004820152602360248201527f45524332303a207472616e7366657220746f20746865207a65726f206164647260448201527f657373000000000000000000000000000000000000000000000000000000000060648201526084016103f0565b6001600160a01b038316600090815260208190526040902054818110156108175760405162461bcd60e51b815260206004820152602660248201527f45524332303a207472616e7366657220616d6f756e742065786365656473206260448201527f616c616e6365000000000000000000000000000000000000000000000000000060648201526084016103f0565b6001600160a01b0380851660009081526020819052604080822085850390559185168152908120805484929061084e908490610b2b565b92505081905550826001600160a01b0316846001600160a01b03167fddf252ad1be2c89b69c2b068fc378daa952ba7f163c4a11628f55a4df523b3ef8460405161089a91815260200190565b60405180910390a350505050565b602081526000825180602084015260005b818110156108d657602081860181015160408684010152016108b9565b506000604082850101526040601f19601f83011684010191505092915050565b80356001600160a01b038116811461090d57600080fd5b919050565b6000806040838503121561092557600080fd5b61092e836108f6565b946020939093013593505050565b60008060006060848603121561095157600080fd5b61095a846108f6565b9250610968602085016108f6565b929592945050506040919091013590565b60006020828403121561098b57600080fd5b610994826108f6565b9392505050565b600080604083850312156109ae57600080fd5b6109b7836108f6565b91506109c5602084016108f6565b90509250929050565b600181811c908216806109e257607f821691505b602082108103610a0257634e487b7160e01b600052602260045260246000fd5b50919050565b634e487b7160e01b600052601160045260246000fd5b6001815b6001841115610a5957808504811115610a3d57610a3d610a08565b6001841615610a4b57908102905b60019390931c928002610a22565b935093915050565b600082610a7057506001610347565b81610a7d57506000610347565b8160018114610a935760028114610a9d57610ab9565b6001915050610347565b60ff841115610aae57610aae610a08565b50506001821b610347565b5060208310610133831016604e8410600b8410161715610adc575081810a610347565b610ae96000198484610a1e565b8060001904821115610afd57610afd610a08565b029392505050565b600061099460ff841683610a61565b808202811582820484141761034757610347610a08565b8082018082111561034757610347610a0856fea26469706673582212204ddbadd071345592b8a7877c5774387cdcf0e15d8e89cdbd200f24181ed9e40964736f6c634300081b0033",
  "linkReferences": {},
  "deployedLinkReferences": {}
}